:030000000209AC46
:1009AC0078FFE4F6D8FD9000007F007E04E4F0A30D
:0A09BC00DFFCDEFA75812F0207E967
:03000B00020A9E48
:0D0A9E00C0E0052FE52F7002052ED0E032DC
:03000300020B06E7
:010B060032BC
:0F0A62007D907C01ED1D70011C144C70F7DFF1CD
:010A71002262
:1009C60075B208E4F5B190FE3574EFF075CA20757E
:0909D600C910C2CDC2B1C2B022A9
:0E0A8200E4F589758AFB758CF2D28CD2A9221C
:1009DF00E4F5D875D908F5E9F5F975DB42F5F37546
:0809EF00FBFF75EBFFD2DE22D5
:0D0AAB0090FEA8743FF075DE2175BC8F220F
:10099000E4F52EF52F43BA80120A821209DF1209FC
:0C09A000C6120AABD28875C120D2AF226B
:090ADB0020B2037F01227F0022FA
:1009F700C2CDC2B1C2B0EF24FE6008047009D2B103
:080A0700D2CD22D2B0D2CD22E3
:070AE400C374FF9FF5FB2224
:0B0AD000EF600443BC802253BC7F2277
:10097300E5BC54F04FF5BC43BC400000E5BC30E59A
:0C098300FB53BCDFAFBDEFFEADBEEDFFCF
:01098F002245
:10077C00E4FBFAFCECC3940874809480500E7F0F59
:10078C00120973EF2BFBEE3AFA0C80E8AE02EB7811
:10079C0003CEC313CE13D8F9FBAA06E4F9F8FF7EF7
:0707AC00DC7D01FC02009F4F
:040AFE0075870122D5
:10083400120ADBEF7022FF120AD075FBFF75EBFF83
:1008440043F33FD2A875870200000000C2A853F307
:09085400C00F120AD0120A622240
:0500060043C76080FE0D
:040B020075C138225F
:100A0F007E007F057D007B007A00792312013185FE
:060A1F002E28852F29227C
:10015D00C3E529952FFFE528952EFED3EF9400EEEC
:10016D006480948050028001C340024139E52F2400
:10017D0005F529E4352EF528120ADBEF6047E4F585
:10018D00240523E52364A07003020006AF237E003F
:10019D00EF640A700475270622D3EF940AEE64808B
:1001AD00948040130525E525940174809480407C4E
:1001BD00E4F52575270722E5236401706FE52770A7
:1001CD006B75270122AF237E00D3EF9401748094C9
:1001DD00804039EF940A7480948050300526E4F500
:1001ED0024AF26EF64017005752702801FEF6402AE
:1001FD004E70057527038014EF64034E7005752747
:10020D00048009EF64044E7003752705E4F523D3CC
:10021D00E52694007480948040120524D3E524943F
:0D022D0005748094804005E4F524F5262238
:050AF200AF27E4F52729
:010AF70022DC
:1004E200017001760179017B017E01830188018E11
:1004F200019601A40204080C10161A1E22262A2EA6
:1005020032363B40464B51585F676F78828C98A4D5
:10051200B1C0CFE0FF01010619010101010102038F
:1005220002030203020101010101060C3201010171
:02053200015076
:1008D3007E007F197D007B007A0079081201318543
:1008E3002E21852F227512017513A475140D75150C
:0208F3002022C1
:10043700E50814601214603424027049C3EF944035
:10044700EE94015040803BC3EF9422EE940150118B
:10045700E5169400748094804003151622750802EF
:1004670022D3EF944AEE9401401B8009D3EF944ABC
:10047700EE94014004E4F50822D3EF942CEE9401A6
:060487004003750801228C
:060AEB00EF9004F693FFFA
:010AF10022E2
:10048D00E517C395185020E5172519FFE433FED362
:10049D00EF95187480F86E9840058518178030E533
:1004AD00192517F5178028E517D395184026E51857
:1004BD002519FFE433FEC3E5179FEE6480F87480C1
:1004CD009850058518178007C3E5179519F517AFCF
:0504DD0017120AE422E1
:1005C600AF16120AEB8F2CE52CD395174006E52CB7
:1005D6009517800CE52CC395175015C3E517952C78
:1005E600FFE49400FE7C007D0512000E8F2D800531
:1005F600AF17020AE4E52D7003752D01852C1885C9
:050606002D1912048D06
:01060B0022CC
:0403DD00AB07AA06BA
:1003E100AE14E5157803CEC313CE13D8F9FFC3EBD2
:1003F1009FFFEA9EFEEF2515F515EE3514F514FE67
:10040100E5157803CEC313CE13D8F9FFC39513EEC8
:100411009512500BC3E5139FFDE5129EFC8009C3A5
:10042100EF9513FDEE9512FCC3ED9402EC940040A0
:05043100048E128F1380
:0104360022A3
:1009170012077CAD07AC068C128D13ED7803C33339
:10092700CE33CED8F9F5158E14AF05AE04020437D1
:100A720012077C1203DD1205C6AF13AE1202043751
:090A5000E4FF120AEB8F17E4FF2A
:090A59008F161205C6E4F5112206
:100A2500E50A24FE600A04700AE50964037F2022B2
:060A35007F20227F002259
:0C0AB800E50A64017003AF0C22AF0D22B0
:06085D00750B01120A25D3
:100863008F2BE50A6401700BE50C652B6013852B58
:100873000C800BE50D652B6008852B0DAF2B120A41
:020883005922F8
:10088500E4FDEDC3940A748094805019ED25E024AD
:10089500E2F582E43404F583D37401939FE4939ED7
:0708A50050030D80DDAF05DB
:0108AC002229
:1009370012077CAB07AA06120885AD07AF0312049E
:0D09470037ED70037F0122ED75F00FA4FF66
:010954002280
:10053400E51E451D6044D3E5209400E51F9400406A
:1005440009E52015207033151F22051AE51AC395F5
:100554001B4003E4F51AE51E251AF582E4351DF562
:1005640083E493851CF0A485F01FF520E51A30E0A0
:0B057400047F008002AF0A1209F7228A
:100955008E1D8F1E8D1B8B1CE4F51A8F828E839343
:0E096500851CF0A485F01FF520AF0A0209F7EB
:060AF800E4F51DF51E22CD
:0C0AC400E51E451D60037F01227F00221B
:10023A008F09120AF8EF1460571460151460141429
:10024A00602614603924057058751F007520C8800F
:10025A004B8039120A25120A597E057F17E50F903D
:10026A00051993FB7D028013120A25120A597E058D
:10027A007F1BE51090052D93FB7D12020955750A27
:10028A0001120937751F008F20120A50AF0A800E1B
:10029A00750A01751F007520C8120A50E4FF120979
:0202AA00F72239
:10057F00EF24FD601824FD601B2404701C750A0114
:10058F00AF0C120A597F0212023A02091712085DC4
:10059F007F0280027F0502023AD3E5209400E51F17
:1005AF0094004009E5201520700C151F22751F00BF
:0705BF007520C81208342268
:100651008F2BE4FF1209F7E52B24FB6011240470B2
:1006610012751F007520C87F011209F78005E4FF8C
:1006710002023AD3E5209400E51F94004009E520E9
:100681001520700C151F22751F007520C812083423
:010691002246
:1008AD00120AB8AE07120A25EFB50604E4F50B22BD
:1008BD00AF06EF7004750B0122E50B70047F01800C
:0508CD00027F008F0B0B
:0108D2002203
:10080000120AB8AE07E50B6013120A25EEC39F501B
:1008100005EE04FF8002AF06AE078013EED394000E
:10082000748094804005EE14FF8002AF06AE07AFDF
:040830000602086351
:10037E00EF24FD601114601D24FE601D14601D2409
:10038E0005701CE4801F750A02AF0D120A597F0218
:10039E0012023A800A7F03800D1208AD120800E5A2
:1003AE000864027004FF02023AE50864017011123B
:1003BE000AC4EF70197E057F2F7B0C7D050209554F
:0F03CE00120AC4EF6008AF0A1209F7120AF822E8
:1006D000EF24FB600B14600C240470247F0480273B
:1006E0007F018023E50F70047F0180027F008F0F60
:1006F0007E057F17E50F90051993FB7D02120955C2
:0B070000E50864027004FF12023A22B8
:10069200EF24FD600B24FD600E24047026E4802903
:1006A20012085D7F028023E51070047F0180027FC3
:1006B200008F107E057F1BE51090052D93FB7D12A8
:0E06C200120955E50864027004FF12023A2284
:100A3B008F2BE52015207002151FE520451F700434
:050A4B00FF12023A2237
:10070B00120AF28F2AE50914601514601714601988
:10071B0014601B14601D2405701EAF2A02057FAFE9
:10072B002A020651AF2A02037EAF2A0206D0AF2A55
:08073B00020692AF2A120A3BEC
:010743002293
:10060C00E50964026004E4F50E22D3E50E9400744F
:10061C008094804003150E22750EC8120A90D3EFF9
:10062C00943274809480401C120A25EF75F003A458
:10063C00AEF07802CEC313CE13D8F9FFE516D39FD4
:04064C00400215163D
:010650002287
:1008F500AF09EF600464017004E4F51122D3E5113A
:100905009400748094804003151122751114120A05
:0209150072224C
:1007B300C3E522952FFFE521952EFED3EF9400EE9E
:1007C3006480948050028001C3501AE52F2401F500
:1007D30022E4352EF52112048D1208F512060C12AF
:0607E300070B1205342291
:1007E900120990120A0F1208D312015D1207B312EF
:0707F9000B02120AFE80F260
:1002AC000200020C021802240230023B02470252E6
:1002BC00025E02690274027F02890293029E02A806
:1002CC0002B102BB02C402CE02D602DF02E802F087
:1002DC0002F803000308030F0316031E0324032B69
:1002EC0003320338033E0344034A034F0355035AB6
:1002FC00035F03640369036D03720376037B037F5F
:10030C0003830386038A038E039103940398039B50
:04031C008E2A8F2B6B
:10032000E4FC7937EC2401FFE433FEE9FBC3EF9BE7
:100330007480F86E985042E9FFEC2FFFE433A2E797
:1003400013EF13FD25E024ACF582E43402F583E4D9
:1003500093F52C740193F52DC3E52B952DE52A9586
:100360002C5004A90580BDD3E52B952DE52A952CAD
:0D0370004004AC0580AEED8001EC2419FFC7
:01037D00225D
:10074400E4F52AF52BF52CC3E52C940874809480E9
:1007540050137F04120973EF252BF52BEE352AF580
:100764002A052C80E2AE2AE52B7803CEC313CE13E0
:07077400D8F9F52B8E2AFFD6
:01077B00225B
:0E0A9000120744C3E49FFF74049EFE02031C81
:10000E00BC000BBE0029EF8DF084FFADF022E4CCD6
:10001E00F875F008EF2FFFEE33FEEC33FCEE9DEC9F
:10002E00984005FCEE9DFE0FD5F0E9E4CEFD22EDE5
:10003E00F8F5F0EE8420D21CFEADF075F008EF2F2F
:10004E00FFED33FD4007985006D5F0F222C398FD20
:05005E000FD5F0EA22BD
:1000630075F008758200EF2FFFEE33FECD33CDCC54
:1000730033CCC58233C5829BED9AEC99E5829840D7
:100083000CF582EE9BFEED9AFDEC99FC0FD5F0D6B4
:10009300E4CEFBE4CDFAE4CCF9A88222B800C1B9DE
:1000A3000059BA002DEC8BF084CFCECDFCE5F0CB1C
:1000B300F97818EF2FFFEE33FEED33FDEC33FCEB55
:1000C30033FB10D703994004EB99FB0FD8E5E4F910
:1000D300FA227818EF2FFFEE33FEED33FDEC33FCFD
:1000E300C933C910D7059BE99A4007EC9BFCE99AF1
:1000F300F90FD8E0E4C9FAE4CCFB2275F010EF2F36
:10010300FFEE33FEED33FDCC33CCC833C810D70735
:100113009BEC9AE899400AED9BFDEC9AFCE899F870
:0E0123000FD5F0DAE4CDFBE4CCFAE4C8F92203
:10013100EF4E6012EF60010EEDBB010B89828A83E5
:10014100F0A3DFFCDEFA2289F05007F709DFFCA9F2
:0C015100F022BBFEFCF309DFFCA9F02249
:00000001FF
