:0300000002094AA8
:10094A0078FFE4F6D8FD9000007F007E04E4F0A36F
:0A095A00DFFCDEFA75812E0209941D
:03000B00020A2EB8
:0D0A2E00C0E0052EE52E7002052DD0E0324F
:030003000207FFF2
:0107FF0032C7
:0F0A01007D907C01ED1D70011C144C70F7DFF12E
:010A100022C3
:1009D70075B208E4F5B190FE3574EFF075CA20756D
:0509E700C910C2CD2281
:0E0A2000E4F589758AFB758CF2D28CD2A9227E
:1009AB00E4F5D875D908F5E9F5F975DB42F5F3F5FA
:0609BB00EBF5FBD2DE2289
:0D0A3B0090FEA8743FF075DE2175BC8F227F
:10092E00E4F52DF52E43BA80120A201209AB1209F6
:0C093E00D7120A3BD28875C120D2AF222C
:090A5F0020B2037F01227F002276
:090A6800C2CDEF147002D2CD22C0
:070A7100C374FF9FF5FB2297
:0B0A5400EF600443BC802253BC7F22F3
:10091100E5BC54F04FF5BC43BC400000E5BC30E5FC
:0C092100FB53BCDFAFBDEFFEADBEEDFF31
:01092D0022A7
:10033300E4F52BF52CFCECC39408748094805012E4
:100343007F0F120911EF252CF52CEE352BF52B0C15
:1003530080E4AE2BE52C7803CEC313CE13D8F9F586
:100363002C8E2B901FF7E493FE740193FFE4FCFDA6
:10037300780A120131E47B0AFAF9F812009FC006E9
:10038300C007AE2BAF2CAB07AA06E4F9F8D007D011
:040393000602009FBF
:040A8A007587012249
:10083300120A5FEF7027FF120A5475FBFF75EBFF77
:1008430043F33FD2A875870200000000C2A8E4F575
:0E085300FBF5EB53F3C00F120A54120A0122F8
:0500060043C76080FE0D
:040A8E0075C13822D4
:1009C1007E007F057D007B007A00791F120144853E
:0609D1002D24852E2522D5
:10017000C3E525952EFFE524952DFED3EF9400EEE3
:100180006480948050028001C34002414CE52E24DB
:1001900005F525E4352DF524120A5FEF6047E4F5F7
:1001A00020051FE51F64A07003020006AF1F7E003C
:1001B000EF640A700475230622D3EF940AEE64807C
:1001C000948040130521E521940174809480407C43
:1001D000E4F52175230722E51F6401706FE52370A4
:1001E0006B75230122AF1F7E00D3EF9401748094BE
:1001F000804039EF940A7480948050300522E4F5F1
:1002000020AF22EF64017005752302801FEF6402A6
:100210004E70057523038014EF64034E700575233B
:10022000048009EF64044E7003752305E4F51FD3C1
:10023000E52294007480948040120520D3E5209438
:0D02400005748094804005E4F520F522222D
:050A7800AF23E4F523AB
:010A7D002256
:10050000017001760179017B017E01830188018EF2
:10051000019601A4191B1D1F212426292C2F3336D7
:100520003A3F43484E535960676E777F89939DA940
:10053000B5C2D1E0F0010106190101010101020378
:1005400002030203020101010101060C3201010153
:02055000015058
:1008AF007E007F157D007B007A0079081201448558
:1008BF002D1D852E1E75110175124A75130A75149B
:0208CF005022B5
:1004AC00E50814601D14603224027047C3EF9422D7
:1004BC00EE940150028014C3EF944AEE9401503331
:1004CC00802EC3EF9422EE9401500475080222D3BF
:1004DC00EF9454EE9401401B8009D3EF9454EE94A6
:1004EC00014004E4F50822D3EF942CEE9401400370
:0404FC00750801225C
:04074400AB07AA064F
:10074800ED9005149375F0E6A4FFC3E49FFD74F0E3
:1007580095F0FCEAC313FEEB132DFFEC3EFEAC0252
:10076800AD0312000EEFD394FF7480948040027F93
:01077800FF81
:01077900225D
:0403F900AB07AA069E
:1003FD00AE13E5147803CEC313CE13D8F9FFC3EBB8
:10040D009FFFEA9EFEEF2514F514EE3513F513FE4E
:10041D00E5147803CEC313CE13D8F9FFC39512EEAE
:10042D009511500BC3E5129FFDE5119EFC8009C38C
:10043D00EF9512FDEE9511FCC3ED9402EC94004086
:09044D00048E118F12AE11AF12E2
:010456002283
:100964001203331203F98E268F27AD151207441292
:090974000A71AF27AE260204ACA3
:0207AE008F2892
:1007B0001203338E298F2AAD28120744120A71AF13
:1007C0002AAE291204AC852911852A12AE29E52A00
:1007D0007803C333CE33CED8F9F5148E138528159C
:0107E00022F6
:0F0A1100E50A147007E50964037F20227F0022A5
:030A9200AF0C2284
:06097D00750B01120A11C6
:10098300E50A6401700AE50C6F60058F0C1207AE6F
:010993002241
:10086100E4FDEDC3940A748094805019ED25E024D1
:1008710000F582E43405F583D37401939FE4939EDC
:0708810050030D80DDAF05FF
:01088800224D
:1007E100120333AB07AA06120861AD07AF03120467
:0D07F100ACED70037F0122ED75F00FA4FF49
:0107FE0022D8
:10055200E51A45196044D3E51C9400E51B9400405C
:1005620009E51C151C7033151B220516E516C395EB
:10057200174003E4F516E51A2516F582E43519F558
:1005820083E4938518F0A485F01BF51CE51630E092
:0B059200047F008002AF0A120A6822FA
:1008F3008E198F1A8D178B18E4F5168F828E8393BA
:0E0903008518F0A485F01BF51CAF0A020A68E7
:060A7E00E4F519F51A224F
:0C0A4800E51A451960037F01227F00229F
:10024D008F09120A7EEF146059146015146014148E
:10025D0060261460392405705C751B00751CC88000
:10026D004F803B120A111207AE7E057F35E50E90C9
:10027D00053793FB7D028013120A111207AE7E051E
:10028D007F39E50F90054B93FB7D120208F3750A3C
:10029D00011207E1751B008F1CE4FF1207AEAF0AB8
:1002AD008010750A01751B00751CC8E4FF1207AE9E
:0602BD00E4FF120A6822B2
:10059D00EF24FD601224FD601524047016750A0108
:1005AD00AF0C1207AE800312097D7F0280027F051A
:1005BD0002024DD3E51C9400E51B94004009E51C97
:1005CD00151C700C151B22751B00751CC8120833E9
:0105DD0022FB
:1005DE008F27E4FF120A68E52724FB6011240470BC
:1005EE0012751B00751CC87F01120A688005E4FF96
:1005FE0002024DD3E51C9400E51B94004009E51C56
:10060E00151C700C151B22751B00751CC8120833A7
:01061E0022B9
:10088900120A92AE07120A11EFB50604E4F50B221B
:10089900AF06EF7004750B0122E50B70047F018030
:0508A900027F008F0B2F
:0108AE002227
:10077A00120A92AE07E50B6013120A11EEC39F50DC
:10078A0005EE04FF8002AF06AE078013EED3940095
:10079A00748094804005EE14FF8002AF06AE07AF66
:0407AA0006020983B7
:10045700EF24FD601114601324FE6013146013244D
:10046700057012E4801512097D800A7F03800D1242
:10047700088912077AE50864027004FF02024DE555
:100487000864017011120A48EF70197E057F4D7BD1
:100497000C7D050208F3120A48EF6008AF0A120A3A
:0504A70068120A7E222C
:10065D00EF24FB600B14600C240470247F048027AE
:10066D007F018023E50E70047F0180027F008F0ED5
:10067D007E057F35E50E90053793FB7D021208F35D
:0B068D00E50864027004FF12024D2219
:10061F00EF24FD600B24FD600E24047026E4802976
:10062F0012097D7F028023E50F70047F0180027F16
:10063F00008F0F7E057F39E50F90054B93FB7D12E1
:0E064F001208F3E50864027004FF12024D2247
:1009EC008F27E51C151C7002151BE51C451B70049C
:0509FC00FF12024D2274
:1006D300120A788F26E5091460151460171460193F
:1006E30014601B14601D2405701EAF2602059DAF08
:1006F300260205DEAF26020457AF2602065DAF26AB
:0807030002061FAF261209ECEB
:01070B0022CB
:10069800E50964026004E4F50D22D3E50D940074C5
:1006A8008094804003150D22750D64120A84D3EFDF
:1006B8009432748094804012D3E50C941074809422
:0A06C800804007150CAF0C1207AEBE
:0106D2002205
:1008D100AF09EF600464017004E4F51022D3E51060
:1008E100940074809480400315102275101412092D
:0208F10064227F
:10080000C3E51E952EFFE51D952DFED3EF9400EE5A
:100810006480948050028001C35017E52E2401F5B6
:100820001EE4352DF51D1208D11206981206D312BA
:030830000552224C
:1009940012092E1209C11208AF12017012080012B6
:0709A4000A8E120A8A80F29C
:1002C3000200020C021802240230023B02470252CF
:1002D300025E02690274027F02890293029E02A8EF
:1002E30002B102BB02C402CE02D602DF02E802F070
:1002F30002F803000308030F0316031E0324032B52
:1003030003320338033E0344034A034F0355035A9E
:10031300035F03640369036D03720376037B037F47
:1003230003830386038A038E039103940398039B39
:040397008E268F27F8
:10039B00E4FC7937EC2401FFE433FEE9FBC3EF9B6C
:1003AB007480F86E985042E9FFEC2FFFE433A2E71C
:1003BB0013EF13FD25E024C3F582E43402F583E447
:1003CB0093F528740193F529C3E5279529E526951F
:1003DB00285004A90580BDD3E5279529E526952846
:0D03EB004004AC0580AEAF0522EC2419FFE4
:0103F80022E2
:10070C00E4F526F527F528C3E52894087480948031
:10071C0050137F04120911EF2527F527EE3526F526
:10072C0026052880E2AE26E5277803CEC313CE1328
:07073C00D8F9F5278E26FF16
:010743002293
:060A840012070C020397AB
:10000E00BC000BBE0029EF8DF084FFADF022E4CCD6
:10001E00F875F008EF2FFFEE33FEEC33FCEE9DEC9F
:10002E00984005FCEE9DFE0FD5F0E9E4CEFD22EDE5
:10003E00F8F5F0EE8420D21CFEADF075F008EF2F2F
:10004E00FFED33FD4007985006D5F0F222C398FD20
:05005E000FD5F0EA22BD
:1000630075F008758200EF2FFFEE33FECD33CDCC54
:1000730033CCC58233C5829BED9AEC99E5829840D7
:100083000CF582EE9BFEED9AFDEC99FC0FD5F0D6B4
:10009300E4CEFBE4CDFAE4CCF9A88222B800C1B9DE
:1000A3000059BA002DEC8BF084CFCECDFCE5F0CB1C
:1000B300F97818EF2FFFEE33FEED33FDEC33FCEB55
:1000C30033FB10D703994004EB99FB0FD8E5E4F910
:1000D300FA227818EF2FFFEE33FEED33FDEC33FCFD
:1000E300C933C910D7059BE99A4007EC9BFCE99AF1
:1000F300F90FD8E0E4C9FAE4CCFB2275F010EF2F36
:10010300FFEE33FEED33FDCC33CCC833C810D70735
:100113009BEC9AE899400AED9BFDEC9AFCE899F870
:0E0123000FD5F0DAE4CDFBE4CCFAE4C8F92203
:10013100E8600FEFC333FFEE33FEED33FDEC33FC2C
:03014100D8F122D0
:10014400EF4E6012EF60010EEDBB010B89828A83D2
:10015400F0A3DFFCDEFA2289F05007F709DFFCA9DF
:0C016400F022BBFEFCF309DFFCA9F02236
:00000001FF
