:03000000020B47A9
:100B470078FFE4F6D8FD9000007F007E04E4F0A370
:0A0B5700DFFCDEFA758135020B7831
:03000B00020C05DF
:0D0C0500C0E00535E53570020534D0E03261
:03000300020C5399
:010C5300326E
:0F0BBA007D407C06ED1D70011C144C70F7DFF1BF
:010BC9002209
:100B2C0075B20AE4F5B190FE3574EFF075CA207514
:0B0B3C00C910C2CDC2B1D2B0C2B122BC
:0E0BE900E4F589758AEB758CCBD28CD2A922EB
:100B6100E4F5D875D908F5E9F5F975DB4275F3C0F7
:070B7100F5EBF5FBD2DE22DB
:0D0C120090FEA8743FF075DE2775BC8F22A0
:100B1000E4F534F53543BA80120BE9120B61120B80
:0C0B20002C120C12D28875C120D2AF221A
:090C360020B2037F01227F00229D
:100A9800C2CDC2B1D2B0C2B1EF24FE600A14600A5E
:0F0AA8002402700AD2CD22D2B122C2B0D2B12222
:100A5700C374FF9FFF74039EAD075403C4F854F09B
:100A6700C8E4C4540F48FFE5F354CF4FF5F38DFBAB
:010A7700225C
:0B0C2B00EF600443BC802253BC7F221A
:100AF300E5BC54F04FF5BC43BC400000E5BC30E519
:0C0B0300FB53BCDFAFBDEFFEADBEEDFF4D
:010B0F0022C3
:1008AC00E4FBFAFCECC3940874809480500E7F0F28
:1008BC00120AF3EF2BFBEE3AFA0C80E8AE02EB785F
:1008CC0003CEC313CE13D8F9FBAA06E4F9F8FF7EC6
:0708DC00DC7D01FC02009F1E
:040C4B007587012286
:10094D00120C36EF7027FF120C2B75FBFF75EBFFAA
:10095D0043F33FD2A875870200000000C2A8E4F55A
:0E096D00FBF5EB53F3C00F120C2B120BBA224A
:0500060043C76080FE0D
:040C4F0075C1382211
:100B8F007E007F057D007B007A00792612016F853C
:060B9F00342B85352C22E9
:10019B00C3E52C9535FFE52B9534FED3EF9400EE9C
:1001AB006480948050028001C340024177E535247E
:1001BB0005F52CE43534F52B120C36EF6047E4F5DE
:1001CB00270526E52664A07003020006AF267E00F5
:1001DB00EF640A7004752A0622D3EF940AEE64804A
:1001EB00948040130528E528940174809480407C0A
:1001FB00E4F528752A0722E5266401706FE52A705D
:10020B006B752A0122AF267E00D3EF940174809484
:10021B00804039EF940A7480948050300529E4F5BE
:10022B0027AF29EF64017005752A02801FEF640266
:10023B004E7005752A038014EF64034E7005752A02
:10024B00048009EF64044E7003752A05E4F526D388
:10025B00E52994007480948040120527D3E52794F8
:0D026B0005748094804005E4F527F52922F4
:050C3F00AF2AE4F52AD4
:010C4400228D
:10037400017001760179017B017E01830188018E80
:10038400019601A400140017001A001D0021002585
:10039400002A002F0035003C0044004D0057006344
:1003A4000070007E008F00A200B700CF00EA0109B0
:1003B400012B0152017F01B101E90229027202C33A
:1003C4000320038903FF0101061901010101010250
:1003D4000302030203020101010101060C320101BF
:0303E400010150C4
:1009F1007E007F1C7D007B007A00790812016F85E3
:100A010034248535257512017513A475140D7515DA
:020A11002022A1
:10064800E50814601214603424027049C3EF944022
:10065800EE94015040803BC3EF9422EE9401501178
:10066800E5169400748094804003151622750802DC
:1006780022D3EF944AEE9401401B8009D3EF944AA9
:10068800EE94014004E4F50822D3EF942CEE940193
:0606980040037508012279
:10027800851232851333EF25E02488F582E43403B0
:10028800F583E493FE740193FF7C007DB412014270
:10029800C3E49FFF74C09EFE74039DFDE49CFCA80C
:1002A80004A905AA06AB07E532C313FEE53313FF1D
:1002B800E4FCFDEB2FFFEA3EFEED39FDEC38FCC017
:1002C80006C007AE32AF33AB07AA06E4F9F8D00789
:1002D800D00612009F8F828E83E4FCFD7BFF7A0399
:0F02E800F9F8C312013150039003FFAE83AF82C8
:0102F70022E4
:10045700C3E518951AE51795195029E518251CFFC6
:10046700E517351BFED3EF951AEE95194008851948
:1004770017851A188041E51C2518F518E51B35174F
:10048700F5178033D3E518951AE5179519402FE529
:100497001A251CFFE519351BFEC3E5189FE5179EB6
:1004A7005008851917851A18800DC3E518951CF58E
:0F04B70018E517951BF517AF18AE17120A572245
:10059000AF161202788E2F8F30D3E5309518E52FE5
:1005A0009517400BE5309518FFE52F95178015C37B
:1005B000E5309518E52F95175016C3E5189530FFCF
:1005C000E517952FFE7C007D0512000E8F31800708
:1005D000AF18AE17020A57E5317003753101852F48
:0D05E0001985301A751B0085311C12045757
:0105ED0022EB
:0405EE00AB07AA06A7
:1005F200AE14E5157803CEC313CE13D8F9FFC3EBBF
:100602009FFFEA9EFEEF2515F515EE3514F514FE53
:10061200E5157803CEC313CE13D8F9FFC39513EEB5
:100622009512500BC3E5139FFDE5129EFC8009C392
:10063200EF9513FDEE9512FCC3ED9402EC9400408D
:05064200048E128F136D
:010647002290
:100A78001208ACAD07AC068C128D13ED7803C333A6
:100A8800CE33CED8F9F5158E14AF05AE040206485C
:100BCA001208AC1205EE120590AF13AE12020648D7
:060BDA008E178F18E4FFE6
:090BE0008F16120590E4F51122B4
:100A1300E50A24FE601314601324027012E50964CE
:100A23000370037F20227F1C227F11227F0E227FEF
:020A330000229F
:0C07F400E50A64017003AF0C22AF0D2277
:06097B00750B01120A13C6
:100981008F2EE50A6401700BE50C652E6013852E30
:100991000C800BE50D652E6008852E0DAF2E120B18
:0209A100E02252
:1009A300E4FDEDC3940A748094805019ED25E0248E
:1009B30074F582E43403F583D37401939FE4939E27
:0709C30050030D80DDAF05BC
:0109CA00220A
:100AB7001208ACAB07AA061209A3AD07AF031206CB
:0D0AC70048ED70037F0122ED75F00FA4FFD4
:010AD40022FF
:10069E00E52145206044D3E5239400E522940040F3
:1006AE0009E52315237033152222051DE51DC3957B
:1006BE001E4003E4F51DE521251DF582E43520F5E8
:1006CE0083E493851FF0A485F022F523E51D30E029
:0B06DE00047F008002AF0A120A98227D
:100AD5008E208F218D1E8B1FE4F51D8F828E8393B3
:0E0AE500851FF0A485F022F523AF0A020A98BF
:060C4500E4F520F5212278
:0C0C1F00E521452060037F01227F0022B8
:1002F8008F09120C45EF14605C1460151460141417
:100308006026146039240570627522007523C88040
:1003180055803E120A13120BE07E037FCAE50F9048
:1003280003CC93FB7D028013120A13120BE07E03A9
:100338007FCEE5109003E093FB7D12020AD5750A83
:1003480001120AB77522008F23E4FF120278120BFC
:10035800DAAF0A8013750A017522007523C8E4FF15
:0C036800120278120BDAE4FF120A98224D
:1006E900EF24FD601824FD601B2404701C750A01A9
:1006F900AF0C120BE07F021202F8020A7812097B92
:100709007F0280027F050202F8D3E5239400E522E7
:1007190094004009E5231523700C15222275220047
:070729007523C812094D22DF
:100775008F2EE4FF120A98E52E24FB6011240470E5
:10078500127522007523C87F01120A988005E4FFBF
:100795000202F8D3E5239400E52294004009E523FD
:1007A5001523700C1522227522007523C812094DD8
:0107B5002221
:1009CB001207F4AE07120A13EFB50604E4F50B2277
:1009DB00AF06EF7004750B0122E50B70047F0180ED
:0509EB00027F008F0BEC
:0109F00022E4
:100919001207F4AE07E50B6013120A13EEC39F50DA
:1009290005EE04FF8002AF06AE078013EED39400F4
:10093900748094804005EE14FF8002AF06AE07AFC5
:040949000602098118
:1004C600EF24FD601114601D24FE602614602624AE
:1004D600057025E48028750A02AF0D120BE07F0235
:1004E6001202F88013E50A64027003750A037F039B
:1004F600800D1209CB120919E50864027004FF0287
:1005060002F8E50864017011120C1FEF70197E03E2
:100516007FE27B0C7D05020AD5120C1FEF6008AF47
:080526000A120A98120C45228A
:10080000EF24FB600B14600C240470247F04802709
:100810007F018023E50F70047F0180027F008F0F2E
:100820007E037FCAE50F9003CC93FB7D02120AD5AD
:0B083000E50864027004FF1202F822C9
:1007B600EF24FD600B24FD600E24047026E48029DE
:1007C60012097B7F028023E51070047F0180027F7F
:1007D600008F107E037FCEE5109003E093FB7D1221
:0E07E600120AD5E50864027004FF1202F82220
:100BA5008F2EE523152370021522E52345227004B7
:050BB500FF1202F8220E
:10083B00120C3F8F2DE50914601514601714601905
:10084B0014601B14601D2405701EAF2D0206E9AF4A
:10085B002D020775AF2D0204C6AF2D020800AF2D78
:08086B000207B6AF2D120BA528
:010873002262
:10073000E50964026004E4F50E22D3E50E9400742A
:100740008094804003150E22750EC8120BF7D3EF6C
:10075000943274809480401C120A13EF75F003A445
:10076000AEF07802CEC313CE13D8F9FFE516D39FAF
:040770004002151618
:010774002262
:100A3500AF09EF600464017004E4F51122D3E511F8
:100A45009400748094804003151122751114120BC3
:020A5500CA22B3
:1008E300C3E5259535FFE5249534FED3EF9400EE5B
:1008F3006480948050028001C3501AE5352401F5C9
:1009030025E43534F524120457120A351207301240
:06091300083B12069E22C3
:100B7800120B10120B8F1209F112019B1208E312CB
:070B88000C4F120C4B80F230
:1003E7000200020C021802240230023B02470252AA
:1003F700025E02690274027F02890293029E02A8CA
:1004070002B102BB02C402CE02D602DF02E802F04A
:1004170002F803000308030F0316031E0324032B2C
:1004270003320338033E0344034A034F0355035A79
:10043700035F03640369036D03720376037B037F22
:1004470003830386038A038E039103940398039B14
:04052E008E2D8F2E51
:10053200E4FC7937EC2401FFE433FEE9FBC3EF9BD3
:100542007480F86E985042E9FFEC2FFFE433A2E783
:1005520013EF13FD25E024E7F582E43403F583E489
:1005620093F52F740193F530C3E52E9530E52D9563
:100572002F5004A90580BDD3E52E9530E52D952F8A
:0D0582004004AC0580AEED8001EC2419FFB3
:01058F002249
:10087400E4F52DF52EF52FC3E52F940874809480AC
:1008840050137F04120AF3EF252EF52EEE352DF5C5
:100894002D052F80E2AE2DE52E7803CEC313CE13A3
:0708A400D8F9F52E8E2DFF9F
:0108AB00222A
:0E0BF700120874C3E49FFF74049EFE02052ED4
:10000E00BC000BBE0029EF8DF084FFADF022E4CCD6
:10001E00F875F008EF2FFFEE33FEEC33FCEE9DEC9F
:10002E00984005FCEE9DFE0FD5F0E9E4CEFD22EDE5
:10003E00F8F5F0EE8420D21CFEADF075F008EF2F2F
:10004E00FFED33FD4007985006D5F0F222C398FD20
:05005E000FD5F0EA22BD
:1000630075F008758200EF2FFFEE33FECD33CDCC54
:1000730033CCC58233C5829BED9AEC99E5829840D7
:100083000CF582EE9BFEED9AFDEC99FC0FD5F0D6B4
:10009300E4CEFBE4CDFAE4CCF9A88222B800C1B9DE
:1000A3000059BA002DEC8BF084CFCECDFCE5F0CB1C
:1000B300F97818EF2FFFEE33FEED33FDEC33FCEB55
:1000C30033FB10D703994004EB99FB0FD8E5E4F910
:1000D300FA227818EF2FFFEE33FEED33FDEC33FCFD
:1000E300C933C910D7059BE99A4007EC9BFCE99AF1
:1000F300F90FD8E0E4C9FAE4CCFB2275F010EF2F36
:10010300FFEE33FEED33FDCC33CCC833C810D70735
:100113009BEC9AE899400AED9BFDEC9AFCE899F870
:0E0123000FD5F0DAE4CDFBE4CCFAE4C8F92203
:10013100EB9FF5F0EA9E42F0E99D42F0E89C45F024
:01014100229B
:10014200EC8EF0A4CCC5F0CCCDF8EFA4CEC5F02D4A
:10015200FDE43CFCE8A42EC8C5F03DFDE43CFCEF08
:0D016200A4FFE5F028FEE43DFDE43CFC2296
:10016F00EF4E6012EF60010EEDBB010B89828A83A7
:10017F00F0A3DFFCDEFA2289F05007F709DFFCA9B4
:0C018F00F022BBFEFCF309DFFCA9F0220B
:00000001FF
