:0300000002094CA6
:10094C0078FFE4F6D8FD9000007F007E04E4F0A36D
:0A095C00DFFCDEFA75812E02099619
:03000B00020A30B6
:0D0A3000C0E0052EE52E7002052DD0E0324D
:03000300020A9757
:010A9700322C
:0F0A03007D907C01ED1D70011C144C70F7DFF12C
:010A120022C1
:1009D90075B208E4F5B190FE3574EFF075CA20756B
:0509E900C910C2CD227F
:0E0A2200E4F589758AFB758CF2D28CD2A9227C
:1009AD00E4F5D875D908F5E9F5F975DB42F5F3F5F8
:0609BD00EBF5FBD2DE2287
:0D0A3D0090FEA8743FF075DE2175BC8F227D
:1007E400E4F52DF52E43BA80120A221209AD12093E
:0C07F400D9120A3DD28875C120D2AF2274
:090A610020B2037F01227F002274
:090A6A00C2CDEF147002D2CD22BE
:070A7300C374FF9FF5FB2295
:0B0A5600EF600443BC802253BC7F22F1
:10092F00E5BC54F04FF5BC43BC400000E5BC30E5DE
:0C093F00FB53BCDFAFBDEFFEADBEEDFF13
:01094B002289
:10033000E4F52BF52CFCECC39408748094805012E7
:100340007F0F12092FEF252CF52CEE352BF52B0CFA
:1003500080E4AE2BE52C7803CEC313CE13D8F9F589
:100360002C8E2B901FF7E493FE740193FFE4FCFDA9
:10037000780A120131E47B0AFAF9F812009FC006EC
:10038000C007AE2BAF2CAB07AA06E4F9F8D007D014
:040390000602009FC2
:040A8C007587012247
:10083300120A61EF7027FF120A5675FBFF75EBFF73
:1008430043F33FD2A875870200000000C2A8E4F575
:0E085300FBF5EB53F3C00F120A56120A0322F4
:0500060043C76080FE0D
:040A900075C13822D2
:1009C3007E007F057D007B007A00791F120144853C
:0609D3002D24852E2522D3
:10017000C3E525952EFFE524952DFED3EF9400EEE3
:100180006480948050028001C34002414CE52E24DB
:1001900005F525E4352DF524120A61EF6047E4F5F5
:1001A00020051FE51F64A07003020006AF1F7E003C
:1001B000EF640A700475230622D3EF940AEE64807C
:1001C000948040130521E521940174809480407C43
:1001D000E4F52175230722E51F6401706FE52370A4
:1001E0006B75230122AF1F7E00D3EF9401748094BE
:1001F000804039EF940A7480948050300522E4F5F1
:1002000020AF22EF64017005752302801FEF6402A6
:100210004E70057523038014EF64034E700575233B
:10022000048009EF64044E7003752305E4F51FD3C1
:10023000E52294007480948040120520D3E5209438
:0D02400005748094804005E4F520F522222D
:050A7A00AF23E4F523A9
:010A7F002254
:1004FD00017001760179017B017E01830188018EF6
:10050D00019601A4191B1D1F212426292C2F3336DA
:10051D003A3F43484E535960676E777F89939DA943
:10052D00B5C2D1E0F001010619010101010102037B
:10053D0002030203020101010101060C3201010156
:02054D0001505B
:1008AF007E007F157D007B007A0079081201448558
:1008BF002D1D852E1E75110175124A75130A75149B
:0208CF005022B5
:1004A900E50814601D14603224027047C3EF9422DA
:1004B900EE940150028014C3EF944AEE9401503334
:1004C900802EC3EF9422EE9401500475080222D3C2
:1004D900EF9454EE9401401B8009D3EF9454EE94A9
:1004E900014004E4F50822D3EF942CEE9401400373
:0404F900750801225F
:04074700AB07AA064C
:10074B00ED9005119375F0E6A4FFC3E49FFD74F0E3
:10075B0095F0FCEAC313FEEB132DFFEC3EFEAC024F
:10076B00AD0312000EEFD394FF7480948040027F90
:01077B00FF7E
:01077C00225A
:0403F600AB07AA06A1
:1003FA00AE13E5147803CEC313CE13D8F9FFC3EBBB
:10040A009FFFEA9EFEEF2514F514EE3513F513FE51
:10041A00E5147803CEC313CE13D8F9FFC39512EEB1
:10042A009511500BC3E5129FFDE5119EFC8009C38F
:10043A00EF9512FDEE9511FCC3ED9402EC94004089
:09044A00048E118F12AE11AF12E5
:010453002286
:100966001203301203F68E268F27AD151207471293
:090976000A73AF27AE260204A9A2
:0207B1008F288F
:1007B3001203308E298F2AAD28120747120A73AF0E
:1007C3002AAE291204A9852911852A12AE29E52A00
:1007D3007803C333CE33CED8F9F5148E1385281599
:0107E30022F3
:0F0A1300E50A147007E50964037F20227F0022A3
:030A9400AF0C2282
:06097F00750B01120A13C2
:10098500E50A6401700AE50C6F60058F0C1207B16A
:01099500223F
:10086100E4FDEDC3940A748094805019ED25E024D1
:10087100FDF582E43404F583D37401939FE4939EE0
:0708810050030D80DDAF05FF
:01088800224D
:1008F300120330AB07AA06120861AD07AF03120457
:0D090300A9ED70037F0122ED75F00FA4FF38
:0109100022C4
:10054F00E51A45196044D3E51C9400E51B9400405F
:10055F0009E51C151C7033151B220516E516C395EE
:10056F00174003E4F516E51A2516F582E43519F55B
:10057F0083E4938518F0A485F01BF51CE51630E095
:0B058F00047F008002AF0A120A6A22FB
:100911008E198F1A8D178B18E4F5168F828E83939B
:0E0921008518F0A485F01BF51CAF0A020A6AC7
:060A8000E4F519F51A224D
:0C0A4A00E51A451960037F01227F00229D
:10024D008F09120A80EF146059146015146014148C
:10025D00602614603924057059751B00751CC88003
:10026D004C803B120A131207B17E057F32E50E90CA
:10027D00053493FB7D028013120A131207B17E051C
:10028D007F36E50F90054893FB7D12020911750A23
:10029D00011208F3751B008F1CE4FF1207B1AF0AA2
:1002AD00800D751B00751CC8E4FF1207B1E4FF1229
:0302BD000A6A22A8
:10059A00EF24FD601224FD601524047016750A010B
:1005AA00AF0C1207B1800312097F7F0280027F0518
:1005BA0002024DD3E51C9400E51B94004009E51C9A
:1005CA00151C700C151B22751B00751CC8120833EC
:0105DA0022FE
:1005DB008F27E4FF120A6AE52724FB6011240470BD
:1005EB0012751B00751CC87F01120A6A8005E4FF97
:1005FB0002024DD3E51C9400E51B94004009E51C59
:10060B00151C700C151B22751B00751CC8120833AA
:01061B0022BC
:10088900120A94AE07120A13EFB50604E4F50B2217
:10089900AF06EF7004750B0122E50B70047F018030
:0508A900027F008F0B2F
:0108AE002227
:10077D00120A94AE07E50B6013120A13EEC39F50D5
:10078D0005EE04FF8002AF06AE078013EED3940092
:10079D00748094804005EE14FF8002AF06AE07AF63
:0407AD0006020985B2
:10045400EF24FD601114601324FE60131460132450
:10046400057012E4801512097F800A7F03800D1243
:10047400088912077DE50864027004FF02024DE555
:100484000864017011120A4AEF70197E057F4A7BD5
:100494000C7D05020911120A4AEF6008AF0A120A1C
:0504A4006A120A80222B
:10069B00EF24FB600B14600C240470247F04802770
:1006AB007F018023E50E70047F0180027F008F0E97
:1006BB007E057F32E50E90053493FB7D0212091106
:0B06CB00E50864027004FF12024D22DB
:10065D00EF24FD600B24FD600E24047026E4802938
:10066D0012097F7F028023E50F70047F0180027FD6
:10067D00008F0F7E057F36E50F90054893FB7D12A9
:0E068D00120911E50864027004FF12024D22EA
:1009EE008F27E51C151C7002151BE51C451B70049A
:0509FE00FF12024D2272
:1006D600120A7A8F26E5091460151460171460193A
:1006E60014601B14601D2405701EAF2602059AAF08
:1006F600260205DBAF26020454AF2602069BAF2670
:0807060002065DAF261209EEA8
:01070E0022C8
:10061C00E50964027006E50A64016004E4F50D2244
:10062C00D3E50D9400748094804003150D22750D54
:10063C0064120A86D3EF9432748094804012D3E50E
:10064C000C9410748094804007150CAF0C1207B1F9
:01065C00227B
:1008D100AF09EF600464017004E4F51022D3E51060
:1008E100940074809480400315102275101412092D
:0208F10066227D
:10080000C3E51E952EFFE51D952DFED3EF9400EE5A
:100810006480948050028001C35017E52E2401F5B6
:100820001EE4352DF51D1208D112061C1206D61233
:03083000054F224F
:100996001207E41209C31208AF12017012080012FE
:0709A6000A90120A8C80F296
:1002C0000200020C021802240230023B02470252D2
:1002D000025E02690274027F02890293029E02A8F2
:1002E00002B102BB02C402CE02D602DF02E802F073
:1002F00002F803000308030F0316031E0324032B55
:1003000003320338033E0344034A034F0355035AA1
:10031000035F03640369036D03720376037B037F4A
:1003200003830386038A038E039103940398039B3C
:040394008E268F27FB
:10039800E4FC7937EC2401FFE433FEE9FBC3EF9B6F
:1003A8007480F86E985042E9FFEC2FFFE433A2E71F
:1003B80013EF13FD25E024C0F582E43402F583E44D
:1003C80093F528740193F529C3E5279529E5269522
:1003D800285004A90580BDD3E5279529E526952849
:0D03E8004004AC0580AEAF0522EC2419FFE7
:0103F50022E5
:10070F00E4F526F527F528C3E5289408748094802E
:10071F0050137F0412092FEF2527F527EE3526F505
:10072F0026052880E2AE26E5277803CEC313CE1325
:07073F00D8F9F5278E26FF13
:010746002290
:060A860012070F020394A9
:10000E00BC000BBE0029EF8DF084FFADF022E4CCD6
:10001E00F875F008EF2FFFEE33FEEC33FCEE9DEC9F
:10002E00984005FCEE9DFE0FD5F0E9E4CEFD22EDE5
:10003E00F8F5F0EE8420D21CFEADF075F008EF2F2F
:10004E00FFED33FD4007985006D5F0F222C398FD20
:05005E000FD5F0EA22BD
:1000630075F008758200EF2FFFEE33FECD33CDCC54
:1000730033CCC58233C5829BED9AEC99E5829840D7
:100083000CF582EE9BFEED9AFDEC99FC0FD5F0D6B4
:10009300E4CEFBE4CDFAE4CCF9A88222B800C1B9DE
:1000A3000059BA002DEC8BF084CFCECDFCE5F0CB1C
:1000B300F97818EF2FFFEE33FEED33FDEC33FCEB55
:1000C30033FB10D703994004EB99FB0FD8E5E4F910
:1000D300FA227818EF2FFFEE33FEED33FDEC33FCFD
:1000E300C933C910D7059BE99A4007EC9BFCE99AF1
:1000F300F90FD8E0E4C9FAE4CCFB2275F010EF2F36
:10010300FFEE33FEED33FDCC33CCC833C810D70735
:100113009BEC9AE899400AED9BFDEC9AFCE899F870
:0E0123000FD5F0DAE4CDFBE4CCFAE4C8F92203
:10013100E8600FEFC333FFEE33FEED33FDEC33FC2C
:03014100D8F122D0
:10014400EF4E6012EF60010EEDBB010B89828A83D2
:10015400F0A3DFFCDEFA2289F05007F709DFFCA9DF
:0C016400F022BBFEFCF309DFFCA9F02236
:00000001FF
