:030000000208549F
:1008540078FFE4F6D8FD9000007F007E04E4F0A366
:0A086400DFFCDEFA75812E0208B8F1
:03000B0002092EB9
:0D092E00C0E0052EE52E7002052DD0E03250
:0300030002098966
:01098900323B
:0F0910007D907C01ED1D70011C144C70F7DFF120
:01091F0022B5
:10086E0090FE3374FEF075B20A75B10175CA30E4AC
:09087E00F5C9C2B1C2CCC2CD2201
:0E092000E4F589758AFB758CF2D28CD2A9227F
:1008CF00E4F5D875D908F5E9F5F975DB42F5F3F5D7
:0608DF00EBF5FBD2DE2266
:0D093B0090FEA8743FF075DE2175BC8F2280
:10081D00E4F52DF52E43BA801209201208CF1208E7
:0C082D006E12093BD28875C120D2AF22A8
:09096B0020B2037F01227F00226B
:1008A000C2B1C2CCC2CDEF24FE6008047009D2CC24
:0808B000D2B122D2CDD2B12257
:07097400C374FF9FF5FB2295
:0B096000EF600443BC802253BC7F22E8
:10080000E5BC54F04FF5BC43BC400000E5BC30E50E
:0C081000FB53BCDFAFBDEFFEADBEEDFF43
:01081C0022B9
:1002C000E4F52BF52CFCECC3940874809480501258
:1002D0007F0F120800EF252CF52CEE352BF52B0C9B
:1002E00080E4AE2BE52C7803CEC313CE13D8F9F5FA
:1002F0002C8E2B901FF7E493FE740193FFE4FCFD1A
:10030000780A120131E47B0AFAF9F812009FC0065C
:10031000C007AE2BAF2CAB07AA06E4F9F8D007D084
:040320000602009F32
:040981007587012253
:1006D60012096BEF7027FF12096075FBFF75EBFFC0
:1006E60043F33FD2A875870200000000C2A8E4F5D4
:0E06F600FBF5EB53F3C00F120960120910223E
:0500060043C76080FE0D
:0409850075C13822DE
:1008E5007E007F057D007B007A00791F120144851B
:0608F5002D24852E2522B2
:10017000C3E525952EFFE524952DFED3EF9400EEE3
:100180006480948050028001C34002414CE52E24DB
:1001900005F525E4352DF52412096BEF6047E4F5EC
:1001A00020051FE51F64A07003020006AF1F7E003C
:1001B000EF640A700475230622D3EF940AEE64807C
:1001C000948040130521E521940174809480407C43
:1001D000E4F52175230722E51F6401706FE52370A4
:1001E0006B75230122AF1F7E00D3EF9401748094BE
:1001F000804039EF940A7480948050300522E4F5F1
:1002000020AF22EF64017005752302801FEF6402A6
:100210004E70057523038014EF64034E700575233B
:10022000048009EF64044E7003752305E4F51FD3C1
:10023000E52294007480948040120520D3E5209438
:0D02400005748094804005E4F520F522222D
:0507FA00AF23E4F5232C
:0107FF0022D7
:10043500017001760179017B017E01830188018EBE
:10044500019601A4191B1D1F212426292C2F3336A3
:100455003A3F43484E535960676E777F89939DA90C
:10046500B5C2D1E0F0010106190101010101020344
:1004750002030203020101010101060C320101011F
:02048500015024
:10077A007E007F157D007B007A007908120144858E
:10078A002D1D852E1E75110175124A75130A7514D1
:02079A005022EB
:1003E100E50814601D14603224027047C3EF9422A3
:1003F100EE940150028014C3EF944AEE94015033FD
:10040100802EC3EF9422EE9401500475080222D38A
:10041100EF9454EE9401401B8009D3EF9454EE9471
:10042100014004E4F50822D3EF942CEE940140033B
:040431007508012227
:04060600AB07AA068E
:10060A00ED9004499375F0E6A4FFC3E49FFD74F0EE
:10061A0095F0FCEAC313FEEB132DFFEC3EFEAC0291
:10062A00AD0312000EEFD394FF7480948040027FD2
:01063A00FFC0
:01063B00229C
:04038300AB07AA0614
:10038700AE13E5147803CEC313CE13D8F9FFC3EB2E
:100397009FFFEA9EFEEF2514F514EE3513F513FEC5
:1003A700E5147803CEC313CE13D8F9FFC39512EE25
:1003B7009511500BC3E5129FFDE5119EFC8009C303
:1003C700EF9512FDEE9511FCC3ED9402EC940040FD
:0903D700048E118F12AE11AF1259
:0103E00022FA
:100887001202C01203838E268F27AD151206061299
:090897000974AF27AE260203E14B
:020670008F28D1
:100672001202C08E298F2AAD28120606120974AF03
:100682002AAE291203E1852911852A12AE29E52A0B
:100692007803C333CE33CED8F9F5148E13852815DB
:0106A2002235
:10083900E50A24FE600F04700FE509640370037F65
:0B08490020227F1F227F20227F002240
:0C094800E50A64017003AF0C22AF0D2221
:06070400750B011208391B
:10070A008F27E50A6401700BE50C652760138527BE
:10071A000C800BE50D6527600885270DAF271206AB
:02072A0070223B
:10072C00E4FDEDC3940A748094805019ED25E02407
:10073C0035F582E43404F583D37401939FE4939EDE
:07074C0050030D80DDAF0535
:010753002283
:1007BE001202C0AB07AA0612072CAD07AF03120335
:0D07CE00E1ED70037F0122ED75F00FA4FF37
:0107DB0022FB
:10048700E51A45196044D3E51C9400E51B94004028
:1004970009E51C151C7033151B220516E516C395B7
:1004A700174003E4F516E51A2516F582E43519F524
:1004B70083E4938518F0A485F01BF51CE51630E05E
:0B04C700047F008002AF0A1208A02290
:1007DC008E198F1A8D178B18E4F5168F828E8393D2
:0E07EC008518F0A485F01BF51CAF0A0208A0CA
:06097B00E4F519F51A2253
:0C095400E51A451960037F01227F002294
:10024D008F0912097BEF1460591460151460141492
:10025D00602614603924057059751B00751CC88003
:10026D004C803B1208391206707E047F6AE50E90B1
:10027D00046C93FB7D0280131208391206707E0404
:10028D007F6EE50F90048093FB7D120207DC750AEB
:10029D00021207BE751B008F1CE4FF120670AF0A19
:1002AD00800D751B00751CC8E4FF120670E4FF126B
:0302BD0008A02274
:1004D200EF24FD601224FD601524047016750A01D4
:1004E200AF0C12067080031207047F0280027F05A0
:1004F20002024DD3E51C9400E51B94004009E51C63
:10050200151C700C151B22751B00751CC81206D613
:0105120022C6
:100513008F27E4FF1208A0E52724FB601124047051
:1005230012751B00751CC87F021208A08005E4FF2A
:1005330002024DD3E51C9400E51B94004009E51C21
:10054300151C700C151B22751B00751CC81206D6D2
:010553002285
:10075400120948AE07120839EFB50604E4F50B2276
:10076400AF06EF7004750B0122E50B70047F018066
:05077400027F008F0B65
:01077900225D
:10063C00120948AE07E50B6013120839EEC39F5040
:10064C0005EE04FF8002AF06AE078013EED39400D4
:10065C00748094804005EE14FF8002AF06AE07AFA5
:04066C000602070A71
:10032400EF24FD601114601D24FE601D14601D2463
:1003340005701CE4801F750A02AF0D1206707F025F
:1003440012024D800A7F03800D12075412063CE509
:100354000864027004FF02024DE508640170111282
:100364000954EF70197E047F827B0C7D050207DC43
:0F037400120954EF6008AF0A1208A012097B2289
:10059200EF24FB600B14600C240470247F0480277A
:1005A2007F018023E50E70047F0180027F008F0EA1
:1005B2007E047F6AE50E90046C93FB7D021207DCD9
:0B05C200E50864027004FF12024D22E5
:10055400EF24FD600B24FD600E24047026E4802942
:100564001207047F028023E50F70047F0180027F5D
:10057400008F0F7E047F6EE50F90048093FB7D1245
:0E0584001207DCE50864027004FF12024D222B
:1008FB008F27E51C151C7002151BE51C451B70048E
:05090B00FF12024D2265
:1005CD001207FA8F26E509146015146017146019C7
:1005DD0014601B14601D2405701EAF260204D2AFDB
:1005ED0026020513AF26020324AF26020592AF267D
:0805FD00020554AF261208FBB1
:0106050022D2
:01098A00224A
:10079C00AF09EF600464017004E4F51022D3E51096
:1007AC009400748094804003151022751014120864
:0207BC00872292
:1006A300C3E51E952EFFE51D952DFED3EF9400EEB9
:1006B3006480948050028001C35017E52E2401F515
:1006C3001EE4352DF51D12079C12098A1205CD1261
:0306D30004872277
:1008B80012081D1208E512077A1201701206A31217
:0708C800098512098180F28D
:10000E00BC000BBE0029EF8DF084FFADF022E4CCD6
:10001E00F875F008EF2FFFEE33FEEC33FCEE9DEC9F
:10002E00984005FCEE9DFE0FD5F0E9E4CEFD22EDE5
:10003E00F8F5F0EE8420D21CFEADF075F008EF2F2F
:10004E00FFED33FD4007985006D5F0F222C398FD20
:05005E000FD5F0EA22BD
:1000630075F008758200EF2FFFEE33FECD33CDCC54
:1000730033CCC58233C5829BED9AEC99E5829840D7
:100083000CF582EE9BFEED9AFDEC99FC0FD5F0D6B4
:10009300E4CEFBE4CDFAE4CCF9A88222B800C1B9DE
:1000A3000059BA002DEC8BF084CFCECDFCE5F0CB1C
:1000B300F97818EF2FFFEE33FEED33FDEC33FCEB55
:1000C30033FB10D703994004EB99FB0FD8E5E4F910
:1000D300FA227818EF2FFFEE33FEED33FDEC33FCFD
:1000E300C933C910D7059BE99A4007EC9BFCE99AF1
:1000F300F90FD8E0E4C9FAE4CCFB2275F010EF2F36
:10010300FFEE33FEED33FDCC33CCC833C810D70735
:100113009BEC9AE899400AED9BFDEC9AFCE899F870
:0E0123000FD5F0DAE4CDFBE4CCFAE4C8F92203
:10013100E8600FEFC333FFEE33FEED33FDEC33FC2C
:03014100D8F122D0
:10014400EF4E6012EF60010EEDBB010B89828A83D2
:10015400F0A3DFFCDEFA2289F05007F709DFFCA9DF
:0C016400F022BBFEFCF309DFFCA9F02236
:00000001FF
