:030000000209FEF4
:1009FE0078FFE4F6D8FD9000007F007E04E4F0A3BB
:0A0A0E00DFFCDEFA75812F0207E914
:03000B00020AD80E
:0D0AD800C0E0052FE52F7002052ED0E032A2
:03000300020B39B4
:010B39003289
:0F0A9C007D907C01ED1D70011C144C70F7DFF193
:010AAB002228
:100A180075B208E4F5B190FE3574EFF075CA20752B
:090A2800C910C2CDC2B1C2B02256
:0E0ABC00E4F589758AFB758CF2D28CD2A922E2
:100A4900E4F5D875D908F5E9F5F975DB42F5F3F55B
:060A5900EBF5FBD2DE22EA
:0D0AE50090FEA8743FF075DE2175BC8F22D5
:1009C700E4F52EF52F43BA80120ABC120A49120A1F
:0C09D70018120AE5D28875C120D2AF22A8
:090B150020B2037F01227F0022BF
:100A3100C2CDC2B1C2B0EF24FE6008047009D2B1C8
:080A4100D2CD22D2B0D2CD22A9
:070B1E00C374FF9FF5FB22E9
:0B0B0A00EF600443BC802253BC7F223C
:1009AA00E5BC54F04FF5BC43BC400000E5BC30E563
:0C09BA00FB53BCDFAFBDEFFEADBEEDFF98
:0109C600220E
:10077C00E4FBFAFCECC3940874809480500E7F0F59
:10078C001209AAEF2BFBEE3AFA0C80E8AE02EB78DA
:10079C0003CEC313CE13D8F9FBAA06E4F9F8FF7EF7
:0707AC00DC7D01FC02009F4F
:040B310075870122A1
:10086600120B15EF7027FF120B0A75FBFF75EBFFD6
:1008760043F33FD2A875870200000000C2A8E4F542
:0E088600FBF5EB53F3C00F120B0A120A9C2273
:0500060043C76080FE0D
:040B350075C138222C
:100A5F007E007F057D007B007A00792312013185AE
:060A6F002E28852F29222C
:10015D00C3E529952FFFE528952EFED3EF9400EEEC
:10016D006480948050028001C340024139E52F2400
:10017D0005F529E4352EF528120B15EF6047E4F54A
:10018D00240523E52364A07003020006AF237E003F
:10019D00EF640A700475270622D3EF940AEE64808B
:1001AD00948040130525E525940174809480407C4E
:1001BD00E4F52575270722E5236401706FE52770A7
:1001CD006B75270122AF237E00D3EF9401748094C9
:1001DD00804039EF940A7480948050300526E4F500
:1001ED0024AF26EF64017005752702801FEF6402AE
:1001FD004E70057527038014EF64034E7005752747
:10020D00048009EF64044E7003752705E4F523D3CC
:10021D00E52694007480948040120524D3E524943F
:0D022D0005748094804005E4F524F5262238
:050B2500AF27E4F527F5
:010B2A0022A8
:1004E200017001760179017B017E01830188018E11
:1004F200019601A4191B1D1F212426292C2F3336F6
:100502003A3F43484E535960676E777F89939DA95E
:10051200B5C2D1E0F0010106190101010101020396
:1005220002030203020101010101060C3201010171
:02053200015076
:10090A007E007F197D007B007A007908120131850B
:10091A002E21852F227512017513A475140D7515D4
:02092A00202289
:10043700E50814601214603424027049C3EF944035
:10044700EE94015040803BC3EF9422EE940150118B
:10045700E5169400748094804003151622750802EF
:1004670022D3EF944AEE9401401B8009D3EF944ABC
:10047700EE94014004E4F50822D3EF942CEE9401A6
:060487004003750801228C
:10083400AD13AC12EF9004F69375F0E6A4FFC3E495
:100844009FFB74F095F0FAECC313FEED132BFFEA53
:100854003EFE12000EEFD394FF7480948040027F1A
:01086400FF94
:010865002270
:10048D00E517C395185020E5172519FFE433FED362
:10049D00EF95187480F86E9840058518178030E533
:1004AD00192517F5178028E517D395184026E51857
:1004BD002519FFE433FEC3E5179FEE6480F87480C1
:1004CD009850058518178007C3E5179519F517AFCF
:0504DD0017120B1E22A6
:1005C600AF161208348F2CE52CD395174006E52C70
:1005D6009517800CE52CC395175015C3E517952C78
:1005E600FFE49400FE7C007D0512000E8F2D800531
:1005F600AF17020B1EE52D7003752D01852C18858E
:050606002D1912048D06
:01060B0022CC
:0403DD00AB07AA06BA
:1003E100AE14E5157803CEC313CE13D8F9FFC3EBD2
:1003F1009FFFEA9EFEEF2515F515EE3514F514FE67
:10040100E5157803CEC313CE13D8F9FFC39513EEC8
:100411009512500BC3E5139FFDE5129EFC8009C3A5
:10042100EF9513FDEE9512FCC3ED9402EC940040A0
:05043100048E128F1380
:0104360022A3
:10094E0012077CAD07AC068C128D13ED7803C33302
:10095E00CE33CED8F9F5158E14AF05AE040204379A
:100AAC0012077C1203DD1205C6AF13AE1202043717
:090A8A00E4FF1208348F17E4FFA9
:090A93008F161205C6E4F51122CC
:1009E300E50A24FE600F04700FE509640370037FBA
:0B09F30020227F1F227F20227F002295
:0C0AF200E50A64017003AF0C22AF0D2276
:06089400750B011209E3DF
:10089A008F2BE50A6401700BE50C652B6013852B21
:1008AA000C800BE50D652B6008852B0DAF2B120A0A
:0208BA00932287
:1008BC00E4FDEDC3940A748094805019ED25E02476
:1008CC00E2F582E43404F583D37401939FE4939EA0
:0708DC0050030D80DDAF05A4
:0108E30022F2
:10096E0012077CAB07AA061208BCAD07AF03120430
:0D097E0037ED70037F0122ED75F00FA4FF2F
:01098B002249
:10053400E51E451D6044D3E5209400E51F9400406A
:1005440009E52015207033151F22051AE51AC395F5
:100554001B4003E4F51AE51E251AF582E4351DF562
:1005640083E493851CF0A485F01FF520E51A30E0A0
:0B057400047F008002AF0A120A31224F
:10098C008E1D8F1E8D1B8B1CE4F51A8F828E83930C
:0E099C00851CF0A485F01FF520AF0A020A3179
:060B2B00E4F51DF51E2299
:0C0AFE00E51E451D60037F01227F0022E1
:10023A008F09120B2BEF14605714601514601414F5
:10024A00602614603924057058751F007520C8800F
:10025A004B80391209E3120A937E057F17E50F9046
:10026A00051993FB7D0280131209E3120A937E0596
:10027A007F1BE51090052D93FB7D1202098C750AF0
:10028A000112096E751F008F20120A8AAF0A800EAA
:10029A00750A01751F007520C8120A8AE4FF120A3E
:0202AA003122FF
:10057F00EF24FD601824FD601B2404701C750A0114
:10058F00AF0C120A937F0212023A02094E1208941C
:10059F007F0280027F0502023AD3E5209400E51F17
:1005AF0094004009E5201520700C151F22751F00BF
:0705BF007520C81208662236
:100651008F2BE4FF120A31E52B24FB601124047077
:1006610012751F007520C87F01120A318005E4FF51
:1006710002023AD3E5209400E51F94004009E520E9
:100681001520700C151F22751F007520C8120866F1
:010691002246
:1008E400120AF2AE071209E3EFB50604E4F50B228F
:1008F400AF06EF7004750B0122E50B70047F0180D5
:05090400027F008F0BD3
:0109090022CB
:10080000120AF2AE07E50B60131209E3EEC39F5024
:1008100005EE04FF8002AF06AE078013EED394000E
:10082000748094804005EE14FF8002AF06AE07AFDF
:040830000602089A1A
:10037E00EF24FD601114601D24FE601D14601D2409
:10038E0005701CE4801F750A02AF0D120A937F02DE
:10039E0012023A800A7F03800D1208E4120800E56B
:1003AE000864027004FF02023AE50864017011123B
:1003BE000AFEEF70197E057F2F7B0C7D0502098CDE
:0F03CE00120AFEEF6008AF0A120A31120B2B223F
:1006D000EF24FB600B14600C240470247F0480273B
:1006E0007F018023E50F70047F0180027F008F0F60
:1006F0007E057F17E50F90051993FB7D0212098C8B
:0B070000E50864027004FF12023A22B8
:10069200EF24FD600B24FD600E24047026E4802903
:1006A2001208947F028023E51070047F0180027F8C
:1006B200008F107E057F1BE51090052D93FB7D12A8
:0E06C20012098CE50864027004FF12023A224D
:100A75008F2BE52015207002151FE520451F7004FA
:050A8500FF12023A22FD
:10070B00120B258F2AE50914601514601714601954
:10071B0014601B14601D2405701EAF2A02057FAFE9
:10072B002A020651AF2A02037EAF2A0206D0AF2A55
:08073B00020692AF2A120A75B2
:010743002293
:10060C00E50964026004E4F50E22D3E50E9400744F
:10061C008094804003150E22750EC8120ACAD3EFBF
:10062C00943274809480401C1209E3EF75F003A49B
:10063C00AEF07802CEC313CE13D8F9FFE516D39FD4
:04064C00400215163D
:010650002287
:10092C00AF09EF600464017004E4F51122D3E51102
:10093C009400748094804003151122751114120ACE
:02094C00AC22DB
:1007B300C3E522952FFFE521952EFED3EF9400EE9E
:1007C3006480948050028001C3501AE52F2401F500
:1007D30022E4352EF52112048D12092C12060C1277
:0607E300070B1205342291
:1007E9001209C7120A5F12090A12015D1207B31230
:0707F9000B35120B3180F2F9
:1002AC000200020C021802240230023B02470252E6
:1002BC00025E02690274027F02890293029E02A806
:1002CC0002B102BB02C402CE02D602DF02E802F087
:1002DC0002F803000308030F0316031E0324032B69
:1002EC0003320338033E0344034A034F0355035AB6
:1002FC00035F03640369036D03720376037B037F5F
:10030C0003830386038A038E039103940398039B50
:04031C008E2A8F2B6B
:10032000E4FC7937EC2401FFE433FEE9FBC3EF9BE7
:100330007480F86E985042E9FFEC2FFFE433A2E797
:1003400013EF13FD25E024ACF582E43402F583E4D9
:1003500093F52C740193F52DC3E52B952DE52A9586
:100360002C5004A90580BDD3E52B952DE52A952CAD
:0D0370004004AC0580AEED8001EC2419FFC7
:01037D00225D
:10074400E4F52AF52BF52CC3E52C940874809480E9
:1007540050137F041209AAEF252BF52BEE352AF549
:100764002A052C80E2AE2AE52B7803CEC313CE13E0
:07077400D8F9F52B8E2AFFD6
:01077B00225B
:0E0ACA00120744C3E49FFF74049EFE02031C47
:10000E00BC000BBE0029EF8DF084FFADF022E4CCD6
:10001E00F875F008EF2FFFEE33FEEC33FCEE9DEC9F
:10002E00984005FCEE9DFE0FD5F0E9E4CEFD22EDE5
:10003E00F8F5F0EE8420D21CFEADF075F008EF2F2F
:10004E00FFED33FD4007985006D5F0F222C398FD20
:05005E000FD5F0EA22BD
:1000630075F008758200EF2FFFEE33FECD33CDCC54
:1000730033CCC58233C5829BED9AEC99E5829840D7
:100083000CF582EE9BFEED9AFDEC99FC0FD5F0D6B4
:10009300E4CEFBE4CDFAE4CCF9A88222B800C1B9DE
:1000A3000059BA002DEC8BF084CFCECDFCE5F0CB1C
:1000B300F97818EF2FFFEE33FEED33FDEC33FCEB55
:1000C30033FB10D703994004EB99FB0FD8E5E4F910
:1000D300FA227818EF2FFFEE33FEED33FDEC33FCFD
:1000E300C933C910D7059BE99A4007EC9BFCE99AF1
:1000F300F90FD8E0E4C9FAE4CCFB2275F010EF2F36
:10010300FFEE33FEED33FDCC33CCC833C810D70735
:100113009BEC9AE899400AED9BFDEC9AFCE899F870
:0E0123000FD5F0DAE4CDFBE4CCFAE4C8F92203
:10013100EF4E6012EF60010EEDBB010B89828A83E5
:10014100F0A3DFFCDEFA2289F05007F709DFFCA9F2
:0C015100F022BBFEFCF309DFFCA9F02249
:00000001FF
