:030000000208B043
:1008B00078FFE4F6D8FD9000007F007E04E4F0A30A
:0A08C000DFFCDEFA75812E0208E36A
:03000B0002097B6C
:0D097B00C0E0052EE52E7002052DD0E03203
:030003000209DC13
:0109DC0032E8
:0F094D007D907C01ED1D70011C144C70F7DFF1E3
:01095C002278
:1008CA0090FE3374FEF075B20A75B10175CA30E450
:0908DA00F5C9C2B1C2CCC2CD22A5
:0E096D00E4F589758AFB758CF2D28CD2A92232
:1008FA00E4F5D875D908F5E9F5F975DB42F5F3F5AC
:06090A00EBF5FBD2DE223A
:0D09880090FEA8743FF075DE2175BC8F2233
:10087900E4F52DF52E43BA8012096D1208FA120813
:0C088900CA120988D28875C120D2AF22A3
:0909B80020B2037F01227F00221E
:1007E800C2B1C2CCC2CDEF24FE6008047009D2CCDD
:0807F800D2B122D2CDD2B12210
:0709C100C374FF9FF5FB2248
:0B09AD00EF600443BC802253BC7F229B
:10085C00E5BC54F04FF5BC43BC400000E5BC30E5B2
:0C086C00FB53BCDFAFBDEFFEADBEEDFFE7
:01087800225D
:10062D00E4FBFAFCECC3940874809480500E7F0FA9
:10063D0012085CEF2BFBEE3AFA0C80E8AE02EB7879
:10064D0003CEC313CE13D8F9FBAA06E4F9F8FF7E47
:07065D00DC7D01FC02009F9F
:0409D4007587012200
:100700001209B8EF7027FF1209AD75FBFF75EBFFFB
:1007100043F33FD2A875870200000000C2A8E4F5A9
:0E072000FBF5EB53F3C00F1209AD12094D2289
:0500060043C76080FE0D
:0409D80075C138228B
:100910007E007F057D007B007A00792212013185FF
:060920002D27852E282280
:10015D00C3E528952EFFE527952DFED3EF9400EEF0
:10016D006480948050028001C340024139E52E2401
:10017D0005F528E4352DF5271209B8EF6047E4F5AC
:10018D00230522E52264A07003020006AF227E0043
:10019D00EF640A700475260622D3EF940AEE64808C
:1001AD00948040130524E524940174809480407C50
:1001BD00E4F52475260722E5226401706FE52670AB
:1001CD006B75260122AF227E00D3EF9401748094CB
:1001DD00804039EF940A7480948050300525E4F501
:1001ED0023AF25EF64017005752602801FEF6402B1
:1001FD004E70057526038014EF64034E7005752649
:10020D00048009EF64044E7003752605E4F522D3CE
:10021D00E52594007480948040120523D3E5239442
:0D022D0005748094804005E4F523F525223A
:0509C800AF26E4F52656
:0109CD002207
:10041000017001760179017B017E01830188018EE3
:10042000019601A4191B1D1F212426292C2F3336C8
:100430003A3F43484E535960676E777F89939DA931
:10044000B5C2D1E0F0010106190101010101020369
:1004500002030203020101010101060C3201010144
:02046000015049
:1007A4007E007F187D007B007A0079081201318574
:1007B4002D20852E217511017512A475130D751444
:0207C4002022F1
:10036500E50814601214603424027049C3EF944008
:10037500EE94015040803BC3EF9422EE940150115E
:10038500E5159400748094804003151522750802C4
:1003950022D3EF944AEE9401401B8009D3EF944A8F
:1003A500EE94014004E4F50822D3EF942CEE940179
:0603B5004003750801225F
:1006CE00AD12AC11EF9004249375F0E6A4FFC3E4D1
:1006DE009FFB74F095F0FAECC313FEED132BFFEABB
:1006EE003EFE12000EEFD394FF7480948040027F82
:0106FE00FFFC
:0106FF0022D8
:1003BB00E516C395175020E5162518FFE433FED339
:1003CB00EF95177480F86E9840058517168030E509
:1003DB00182516F5168028E516D395174026E51730
:1003EB002518FFE433FEC3E5169FEE6480F8748096
:1003FB009850058517168007C3E5169518F516AFA7
:05040B00161209C122D8
:1004F400AF151206CE8F2BE52BD395164006E52BB0
:100504009516800CE52BC395165015C3E516952B4F
:10051400FFE49400FE7C007D0512000E8F2C800504
:10052400AF160209C1E52C7003752C01852B1785C4
:050534002C181203BBAE
:01053900229F
:04030B00AB07AA068C
:10030F00AE13E5147803CEC313CE13D8F9FFC3EBA6
:10031F009FFFEA9EFEEF2514F514EE3513F513FE3D
:10032F00E5147803CEC313CE13D8F9FFC39512EE9D
:10033F009511500BC3E5129FFDE5119EFC8009C37B
:10034F00EF9512FDEE9511FCC3ED9402EC94004075
:05035F00048E118F1255
:010364002276
:1008000012062DAD07AC068C118D12ED7803C333A3
:10081000CE33CED8F9F5148E13AF05AE04020365BE
:10095D0012062D12030B1204F4AF12AE1102036531
:09093B00E4FF1206CE8F16E4FF62
:090944008F151204F4E4F51022F1
:10089500E50A24FE600F04700FE509640370037F09
:0B08A50020227F1F227F20227F0022E4
:0C099500E50A64017003AF0C22AF0D22D4
:06072E00750B0112089595
:100734008F2AE50A6401700BE50C652A6013852A8B
:100744000C800BE50D652A6008852A0DAF2A120975
:0207540044223D
:10075600E4FDEDC3940A748094805019ED25E024DD
:1007660010F582E43404F583D37401939FE4939ED9
:0707760050030D80DDAF050B
:01077D002259
:1008200012062DAB07AA06120756AD07AF03120337
:0D08300065ED70037F0122ED75F00FA4FF50
:01083D002298
:10046200E51D451C6044D3E51F9400E51E94004041
:1004720009E51F151F7033151E220519E519C395CD
:100482001A4003E4F519E51D2519F582E4351CF53A
:1004920083E493851BF0A485F01EF51FE51930E077
:0B04A200047F008002AF0A1207E8226E
:10083E008E1C8F1D8D1A8B1BE4F5198F828E839360
:0E084E00851BF0A485F01EF51FAF0A0207E817
:0609CE00E4F51CF51D22FA
:0C09A100E51D451C60037F01227F002241
:10023A008F091209CEEF1460571460151460141454
:10024A00602614603924057058751E00751FC88011
:10025A004B80391208951209447E047F45E50E90B9
:10026A00044793FB7D0280131208951209447E0409
:10027A007F49E50F90045B93FB7D1202083E750AE5
:10028A0001120820751E008F1F12093BAF0A800E4B
:10029A00750A01751E00751FC812093BE4FF120793
:0202AA00E82248
:1004AD00EF24FD601824FD601B2404701C750A01E7
:1004BD00AF0C1209447F0212023A02080012072EF5
:1004CD007F0280027F0502023AD3E51F9400E51EEC
:1004DD0094004009E51F151F700C151E22751E0096
:0704ED00751FC81207002271
:10053A008F2AE4FF1207E8E52A24FB6011240470DD
:10054A0012751E00751FC87F011207E88005E4FFB7
:10055A0002023AD3E51F9400E51E94004009E51F04
:10056A00151F700C151E22751E00751FC812070074
:01057A00225E
:10077E00120995AE07120895EFB50604E4F50B22A3
:10078E00AF06EF7004750B0122E50B70047F01803C
:05079E00027F008F0B3B
:0107A3002233
:10069A00120995AE07E50B6013120895EEC39F5039
:1006AA0005EE04FF8002AF06AE078013EED3940076
:1006BA00748094804005EE14FF8002AF06AE07AF47
:0406CA0006020734E9
:1002AC00EF24FD601114601D24FE601D14601D24DC
:1002BC0005701CE4801F750A02AF0D1209447F0201
:1002CC0012023A800A7F03800D12077E12069AE50D
:1002DC000864027004FF02023AE50864017011120E
:1002EC0009A1EF70197E047F5D7B0C7D0502083E31
:0F02FC001209A1EF6008AF0A1207E81209CE221B
:1005B900EF24FB600B14600C240470247F04802753
:1005C9007F018023E50E70047F0180027F008F0E7A
:1005D9007E047F45E50E90044793FB7D0212083E99
:0B05E900E50864027004FF12023A22D1
:10057B00EF24FD600B24FD600E24047026E480291B
:10058B0012072E7F028023E50F70047F0180027F0C
:10059B00008F0F7E047F49E50F90045B93FB7D1268
:0E05AB0012083EE50864027004FF12023A22B4
:100926008F2AE51F151F7002151EE51F451E700450
:05093600FF12023A224D
:1005F4001209C88F29E509146015146017146019CD
:1006040014601B14601D2405701EAF290204ADAFD5
:100614002902053AAF290202ACAF290205B9AF2974
:0806240002057BAF2912092633
:01062C0022AB
:0109DD0022F7
:1007C600AF09EF600464017004E4F51022D3E5106C
:1007D6009400748094804003151022751014120939
:0207E6005D2292
:10066400C3E521952EFFE520952DFED3EF9400EEF2
:100674006480948050028001C3501AE52E2401F551
:1006840021E4352DF5201203BB1207C61209DD1231
:0606940005F412046222CD
:1008E3001208791209101207A412015D120664128C
:0708F30009D81209D480F2BC
:10000E00BC000BBE0029EF8DF084FFADF022E4CCD6
:10001E00F875F008EF2FFFEE33FEEC33FCEE9DEC9F
:10002E00984005FCEE9DFE0FD5F0E9E4CEFD22EDE5
:10003E00F8F5F0EE8420D21CFEADF075F008EF2F2F
:10004E00FFED33FD4007985006D5F0F222C398FD20
:05005E000FD5F0EA22BD
:1000630075F008758200EF2FFFEE33FECD33CDCC54
:1000730033CCC58233C5829BED9AEC99E5829840D7
:100083000CF582EE9BFEED9AFDEC99FC0FD5F0D6B4
:10009300E4CEFBE4CDFAE4CCF9A88222B800C1B9DE
:1000A3000059BA002DEC8BF084CFCECDFCE5F0CB1C
:1000B300F97818EF2FFFEE33FEED33FDEC33FCEB55
:1000C30033FB10D703994004EB99FB0FD8E5E4F910
:1000D300FA227818EF2FFFEE33FEED33FDEC33FCFD
:1000E300C933C910D7059BE99A4007EC9BFCE99AF1
:1000F300F90FD8E0E4C9FAE4CCFB2275F010EF2F36
:10010300FFEE33FEED33FDCC33CCC833C810D70735
:100113009BEC9AE899400AED9BFDEC9AFCE899F870
:0E0123000FD5F0DAE4CDFBE4CCFAE4C8F92203
:10013100EF4E6012EF60010EEDBB010B89828A83E5
:10014100F0A3DFFCDEFA2289F05007F709DFFCA9F2
:0C015100F022BBFEFCF309DFFCA9F02249
:00000001FF
