:030000000208549F
:1008540078FFE4F6D8FD9000007F007E04E4F0A366
:0A086400DFFCDEFA75812E0208B8F1
:03000B0002092EB9
:0D092E00C0E0052EE52E7002052DD0E03250
:030003000207FDF4
:0107FD0032C9
:0F0910007D907C01ED1D70011C144C70F7DFF120
:01091F0022B5
:10086E0090FE3374FEF075B20A75B10175CA30E4AC
:09087E00F5C9C2B1C2CCC2CD2201
:0E092000E4F589758AFB758CF2D28CD2A9227F
:1008CF00E4F5D875D908F5E9F5F975DB42F5F3F5D7
:0608DF00EBF5FBD2DE2266
:0D093B0090FEA8743FF075DE2175BC8F2280
:10081D00E4F52DF52E43BA801209201208CF1208E7
:0C082D006E12093BD28875C120D2AF22A8
:09096B0020B2037F01227F00226B
:1008A000C2B1C2CCC2CDEF24FE6008047009D2CC24
:0808B000D2B122D2CDD2B12257
:07097400C374FF9FF5FB2295
:0B096000EF600443BC802253BC7F22E8
:10080000E5BC54F04FF5BC43BC400000E5BC30E50E
:0C081000FB53BCDFAFBDEFFEADBEEDFF43
:01081C0022B9
:1002C300E4F52BF52CFCECC3940874809480501255
:1002D3007F0F120800EF252CF52CEE352BF52B0C98
:1002E30080E4AE2BE52C7803CEC313CE13D8F9F5F7
:1002F3002C8E2B901FF7E493FE740193FFE4FCFD17
:10030300780A120131E47B0AFAF9F812009FC00659
:10031300C007AE2BAF2CAB07AA06E4F9F8D007D081
:040323000602009F2F
:04098700758701224D
:1006D90012096BEF7027FF12096075FBFF75EBFFBD
:1006E90043F33FD2A875870200000000C2A8E4F5D1
:0E06F900FBF5EB53F3C00F120960120910223B
:0500060043C76080FE0D
:04098B0075C13822D8
:1008E5007E007F057D007B007A00791F120144851B
:0608F5002D24852E2522B2
:10017000C3E525952EFFE524952DFED3EF9400EEE3
:100180006480948050028001C34002414CE52E24DB
:1001900005F525E4352DF52412096BEF6047E4F5EC
:1001A00020051FE51F64A07003020006AF1F7E003C
:1001B000EF640A700475230622D3EF940AEE64807C
:1001C000948040130521E521940174809480407C43
:1001D000E4F52175230722E51F6401706FE52370A4
:1001E0006B75230122AF1F7E00D3EF9401748094BE
:1001F000804039EF940A7480948050300522E4F5F1
:1002000020AF22EF64017005752302801FEF6402A6
:100210004E70057523038014EF64034E700575233B
:10022000048009EF64044E7003752305E4F51FD3C1
:10023000E52294007480948040120520D3E5209438
:0D02400005748094804005E4F520F522222D
:05097B00AF23E4F523A9
:010980002254
:10043800017001760179017B017E01830188018EBB
:10044800019601A4191B1D1F212426292C2F3336A0
:100458003A3F43484E535960676E777F89939DA909
:10046800B5C2D1E0F0010106190101010101020341
:1004780002030203020101010101060C320101011C
:02048800015021
:10077D007E007F157D007B007A007908120144858B
:10078D002D1D852E1E75110175124A75130A7514CE
:02079D005022E8
:1003E400E50814601D14603224027047C3EF9422A0
:1003F400EE940150028014C3EF944AEE94015033FA
:10040400802EC3EF9422EE9401500475080222D387
:10041400EF9454EE9401401B8009D3EF9454EE946E
:10042400014004E4F50822D3EF942CEE9401400338
:040434007508012224
:04060900AB07AA068B
:10060D00ED90044C9375F0E6A4FFC3E49FFD74F0E8
:10061D0095F0FCEAC313FEEB132DFFEC3EFEAC028E
:10062D00AD0312000EEFD394FF7480948040027FCF
:01063D00FFBD
:01063E002299
:04038600AB07AA0611
:10038A00AE13E5147803CEC313CE13D8F9FFC3EB2B
:10039A009FFFEA9EFEEF2514F514EE3513F513FEC2
:1003AA00E5147803CEC313CE13D8F9FFC39512EE22
:1003BA009511500BC3E5129FFDE5119EFC8009C300
:1003CA00EF9512FDEE9511FCC3ED9402EC940040FA
:0903DA00048E118F12AE11AF1256
:0103E30022F7
:100887001202C31203868E268F27AD151206091290
:090897000974AF27AE260203E448
:020673008F28CE
:100675001202C38E298F2AAD28120609120974AFFA
:100685002AAE291203E4852911852A12AE29E52A05
:100695007803C333CE33CED8F9F5148E13852815D8
:0106A5002232
:10083900E50A24FE600F04700FE509640370037F65
:0B08490020227F1F227F20227F002240
:0C094800E50A64017003AF0C22AF0D2221
:06070700750B0112083918
:10070D008F27E50A6401700BE50C652760138527BB
:10071D000C800BE50D6527600885270DAF271206A8
:02072D00732235
:10072F00E4FDEDC3940A748094805019ED25E02404
:10073F0038F582E43404F583D37401939FE4939ED8
:07074F0050030D80DDAF0532
:010756002280
:1007C1001202C3AB07AA0612072FAD07AF0312032C
:0D07D100E4ED70037F0122ED75F00FA4FF31
:0107DE0022F8
:10048A00E51A45196044D3E51C9400E51B94004025
:10049A0009E51C151C7033151B220516E516C395B4
:1004AA00174003E4F516E51A2516F582E43519F521
:1004BA0083E4938518F0A485F01BF51CE51630E05B
:0B04CA00047F008002AF0A1208A0228D
:1007DF008E198F1A8D178B18E4F5168F828E8393CF
:0E07EF008518F0A485F01BF51CAF0A0208A0C7
:06098100E4F519F51A224D
:0C095400E51A451960037F01227F002294
:10024D008F09120981EF146059146015146014148C
:10025D0060261460392405705C751B00751CC88000
:10026D004F803B1208391206737E047F6DE50E90A8
:10027D00046F93FB7D0280131208391206737E04FE
:10028D007F71E50F90048393FB7D120207DF750AE2
:10029D00021207C1751B008F1CE4FF120673AF0A13
:1002AD008010750A02751B00751CC8E4FF120673D9
:0602BD00E4FF1208A0227C
:1004D500EF24FD601224FD601524047016750A01D1
:1004E500AF0C12067380031207077F0280027F0597
:1004F50002024DD3E51C9400E51B94004009E51C60
:10050500151C700C151B22751B00751CC81206D90D
:0105150022C3
:100516008F27E4FF1208A0E52724FB60112404704E
:1005260012751B00751CC87F021208A08005E4FF27
:1005360002024DD3E51C9400E51B94004009E51C1E
:10054600151C700C151B22751B00751CC81206D9CC
:010556002282
:10075700120948AE07120839EFB50604E4F50B2273
:10076700AF06EF7004750B0122E50B70047F018063
:05077700027F008F0B62
:01077C00225A
:10063F00120948AE07E50B6013120839EEC39F503D
:10064F0005EE04FF8002AF06AE078013EED39400D1
:10065F00748094804005EE14FF8002AF06AE07AFA2
:04066F000602070D6B
:10032700EF24FD601114601D24FE601D14601D2460
:1003370005701CE4801F750A02AF0D1206737F0259
:1003470012024D800A7F03800D12075712063FE500
:100357000864027004FF02024DE50864017011127F
:100367000954EF70197E047F857B0C7D050207DF3A
:0F037700120954EF6008AF0A1208A01209812280
:10059500EF24FB600B14600C240470247F04802777
:1005A5007F018023E50E70047F0180027F008F0E9E
:1005B5007E047F6DE50E90046F93FB7D021207DFCD
:0B05C500E50864027004FF12024D22E2
:10055700EF24FD600B24FD600E24047026E480293F
:100567001207077F028023E50F70047F0180027F57
:10057700008F0F7E047F71E50F90048393FB7D123C
:0E0587001207DFE50864027004FF12024D2225
:1008FB008F27E51C151C7002151BE51C451B70048E
:05090B00FF12024D2265
:1005D00012097B8F26E50914601514601714601941
:1005E00014601B14601D2405701EAF260204D5AFD5
:1005F00026020516AF26020327AF26020595AF2671
:08060000020557AF261208FBAA
:0106080022CF
:0107FE0022D8
:10079F00AF09EF600464017004E4F51022D3E51093
:1007AF009400748094804003151022751014120861
:0207BF0087228F
:1006A600C3E51E952EFFE51D952DFED3EF9400EEB6
:1006B6006480948050028001C35017E52E2401F512
:1006C6001EE4352DF51D12079F1207FE1205D012E6
:0306D600048A2271
:1008B80012081D1208E512077D1201701206A61211
:0708C800098B12098780F281
:10000E00BC000BBE0029EF8DF084FFADF022E4CCD6
:10001E00F875F008EF2FFFEE33FEEC33FCEE9DEC9F
:10002E00984005FCEE9DFE0FD5F0E9E4CEFD22EDE5
:10003E00F8F5F0EE8420D21CFEADF075F008EF2F2F
:10004E00FFED33FD4007985006D5F0F222C398FD20
:05005E000FD5F0EA22BD
:1000630075F008758200EF2FFFEE33FECD33CDCC54
:1000730033CCC58233C5829BED9AEC99E5829840D7
:100083000CF582EE9BFEED9AFDEC99FC0FD5F0D6B4
:10009300E4CEFBE4CDFAE4CCF9A88222B800C1B9DE
:1000A3000059BA002DEC8BF084CFCECDFCE5F0CB1C
:1000B300F97818EF2FFFEE33FEED33FDEC33FCEB55
:1000C30033FB10D703994004EB99FB0FD8E5E4F910
:1000D300FA227818EF2FFFEE33FEED33FDEC33FCFD
:1000E300C933C910D7059BE99A4007EC9BFCE99AF1
:1000F300F90FD8E0E4C9FAE4CCFB2275F010EF2F36
:10010300FFEE33FEED33FDCC33CCC833C810D70735
:100113009BEC9AE899400AED9BFDEC9AFCE899F870
:0E0123000FD5F0DAE4CDFBE4CCFAE4C8F92203
:10013100E8600FEFC333FFEE33FEED33FDEC33FC2C
:03014100D8F122D0
:10014400EF4E6012EF60010EEDBB010B89828A83D2
:10015400F0A3DFFCDEFA2289F05007F709DFFCA9DF
:0C016400F022BBFEFCF309DFFCA9F02236
:00000001FF
