:03000000020A539E
:100A530078FFE4F6D8FD9000007F007E04E4F0A365
:0A0A6300DFFCDEFA75812F020A9D08
:03000B00020B0BDA
:0D0B0B00C0E0052FE52F7002052ED0E0326E
:03000300020B6588
:010B6500325D
:0F0ADF007D407C06ED1D70011C144C70F7DFF19B
:010AEE0022E5
:100A380075B20AE4F5B190FE3574EFF075CA207509
:0B0A4800C910C2CDC2B1D2B0C2B122B1
:0E0AEF00E4F589758AEB758CCBD28CD2A922E6
:100A8600E4F5D875D908F5E9F5F975DB4275F3C0D3
:070A9600F5EBF5FBD2DE22B7
:0D0B180090FEA8743FF075DE2775BC8F229B
:100A1C00E4F52EF52F43BA80120AEF120A86120A59
:0C0A2C0038120B18D28875C120D2AF22FE
:090B480020B2037F01227F00228C
:1009A400C2CDC2B1D2B0C2B1EF24FE600A14600A53
:0F09B4002402700AD2CD22D2B122C2B0D2B12217
:1007DF00C374FF9FFF74039EAD075403C4F854F016
:1007EF00C8E4C4540F48FFE5F354CF4FF5F38DFB26
:0107FF0022D7
:0B0B3D00EF600443BC802253BC7F2209
:1009FF00E5BC54F04FF5BC43BC400000E5BC30E50E
:0C0A0F00FB53BCDFAFBDEFFEADBEEDFF42
:010A1B0022B8
:10047500E4F52CF52DFCECC394087480948050129F
:100485007F0F1209FFEF252DF52DEE352CF52C0CE0
:1004950080E4AE2CE52D7803CEC313CE13D8F9F541
:1004A5002D8E2C901FF7E493FE740193FFE4FCFD61
:1004B500780A1200EDE47B0AFAF9F812004AC00640
:1004C500C007AE2CAF2DAB07AA06E4F9F8D007D0CC
:0404D5000602004AD1
:040B5D007587012275
:10089A00120B48EF7027FF120B3D75FBFF75EBFF3C
:1008AA0043F33FD2A875870200000000C2A8E4F50E
:0E08BA00FBF5EB53F3C00F120B3D120ADF22C9
:0500060043C76080FE0D
:040B610075C1382200
:100AB4007E007F057D007B007A00792012012D8560
:060AC4002E25852F2622DD
:10015900C3E526952FFFE525952EFED3EF9400EEF6
:100169006480948050028001C340024135E52F2408
:1001790005F526E4352EF525120B48EF6047E4F521
:10018900210520E52064A07003020006AF207E004F
:10019900EF640A700475240622D3EF940AEE648092
:1001A900948040130522E522940174809480407C58
:1001B900E4F52275240722E5206401706FE52470B7
:1001C9006B75240122AF207E00D3EF9401748094D3
:1001D900804039EF940A7480948050300523E4F507
:1001E90021AF23EF64017005752402801FEF6402BB
:1001F9004E70057524038014EF64034E7005752451
:10020900048009EF64044E7003752405E4F520D3D6
:10021900E52394007480948040120521D3E521944C
:0D02290005748094804005E4F521F5232242
:050B5100AF24E4F524CF
:010B5600227C
:10032A00017001760179017B017E01830188018ECA
:10033A00019601A400140017001A001D00210025CF
:10034A00002A002F0035003C0044004D005700638E
:10035A000070007E008F00A200B700CF00EA0109FA
:10036A00012B0152017F01B101E90229027202C384
:10037A000320038903FF010106190101010101029A
:10038A000302030203020101010101060C32010109
:03039A000101500E
:10093E007E007F167D007B007A00790812012D85DE
:10094E002E1E852F1F75120175134A75140A751503
:02095E00502225
:10059900E50814601D14603224027047C3EF9422E9
:1005A900EE940150028014C3EF944AEE9401503343
:1005B900802EC3EF9422EE9401500475080222D3D1
:1005C900EF9454EE9401401B8009D3EF9454EE94B8
:1005D900014004E4F50822D3EF942CEE9401400382
:0405E900750801226E
:040236008E2C8F2D4E
:10023A00ED25E0243EF582E43403F583E493FE746D
:10024A000193FF7C007DB4120100C3E49FFF74C0D8
:10025A009EFE74039DFDE49CFCA804A905AA06ABB6
:10026A0007E52CC313FEE52D13FFE4FCFDEB2FFF7E
:10027A00EA3EFEED39FDEC38FCC006C007AE2CAFF5
:10028A002DAB07AA06E4F9F8D007D00612004A8F68
:10029A00828E83E4FCFD7BFF7A03F9F8C31200DC4B
:0902AA0050039003FFAE83AF8204
:0102B3002228
:04053B00AB07AA065A
:10053F00AE14E5157803CEC313CE13D8F9FFC3EB72
:10054F009FFFEA9EFEEF2515F515EE3514F514FE07
:10055F00E5157803CEC313CE13D8F9FFC39513EE69
:10056F009512500BC3E5139FFDE5129EFC8009C346
:10057F00EF9513FDEE9512FCC3ED9402EC94004041
:09058F00048E128F13AE12AF139B
:010598002240
:100A6D0012047512053B8E278F28AD161202361211
:090A7D0007DFAF28AE270205993E
:020834008F290A
:100836001204758E2A8F2BAD291202361207DFAFEE
:100846002BAE2A120599852A12852B13AE2AE52B83
:100856007803C333CE33CED8F9F5158E1485291611
:01086600226F
:10096000E50A24FE601314601324027012E5096482
:100970000370037F20227F1C227F11227F0E227FA3
:02098000002253
:0C0B2500E50A64017003AF0C22AF0D2242
:0608C800750B011209602E
:1008CE008F28E50A6401700BE50C652860138528F6
:1008DE000C800BE50D6528600885280DAF281208E1
:0208EE003422B2
:1008F000E4FDEDC3940A748094805019ED25E02442
:100900002AF582E43403F583D37401939FE4939E24
:0709100050030D80DDAF056F
:0109170022BD
:1009C300120475AB07AA061208F0AD07AF031205B0
:0D09D30099ED70037F0122ED75F00FA4FF78
:0109E00022F4
:1005ED00E51B451A6044D3E51D9400E51C940040BD
:1005FD0009E51D151D7033151C220517E517C3954B
:10060D00184003E4F517E51B2517F582E4351AF5B7
:10061D0083E4938519F0A485F01CF51DE51730E0F2
:0B062D00047F008002AF0A1209A42223
:1009E1008E1A8F1B8D188B19E4F5178F828E8393C6
:0E09F1008519F0A485F01CF51DAF0A0209A4BB
:060B5700E4F51AF51B2273
:0C0B3100E51B451A60037F01227F0022B3
:1002B4008F09120B57EF146059146015146014144D
:1002C40060261460392405705C751C00751DC88097
:1002D4004F803B1209601208347E037F80E50F9043
:1002E400038293FB7D0280131209601208347E039B
:1002F4007F84E51090039693FB7D120209E1750A51
:10030400031209C3751C008F1DE4FF120834AF0AE1
:100314008010750A03751C00751DC8E4FF120834AB
:06032400E4FF1209A4220F
:10063800EF24FD601224FD601524047016750A016C
:10064800AF0C12083480031208C87F0280027F05AD
:100658000202B4D3E51D9400E51C94004009E51D91
:10066800151D700C151C22751C00751DC812089AE2
:01067800225F
:100679008F28E4FF1209A4E52824FB6011240470E3
:1006890012751C00751DC87F031209A48005E4FFBB
:100699000202B4D3E51D9400E51C94004009E51D50
:1006A900151D700C151C22751C00751DC812089AA1
:0106B900221E
:10091800120B25AE07120960EFB50604E4F50B22A9
:10092800AF06EF7004750B0122E50B70047F0180A0
:05093800027F008F0B9F
:01093D002297
:10080000120B25AE07E50B6013120960EEC39F5073
:1008100005EE04FF8002AF06AE078013EED394000E
:10082000748094804005EE14FF8002AF06AE07AFDF
:04083000060208CEE6
:10040D00EF24FD601114601D24FE60261460262467
:10041D00057025E48028750A02AF0D1208347F029D
:10042D001202B48013E50A64027003750A037F0398
:10043D00800D120918120800E50864027004FF020D
:10044D0002B4E50864017011120B31EF70197E03CF
:10045D007F987B0C7D050209E1120B31EF6008AF2F
:08046D000A1209A4120B572228
:1006F800EF24FB600B14600C240470247F04802713
:100708007F018023E50F70047F0180027F008F0F37
:100718007E037F80E50F90038293FB7D021209E13F
:0B072800E50864027004FF1202B42216
:1006BA00EF24FD600B24FD600E24047026E48029DB
:1006CA001208C87F028023E51070047F0180027F30
:1006DA00008F107E037F84E51090039693FB7D12B2
:0E06EA001209E1E50864027004FF1202B42256
:100ACA008F28E51D151D7002151CE51D451C7004B7
:050ADA00FF1202B4222E
:10076E00120B518F27E509146015146017146019C8
:10077E0014601B14601D2405701EAF27020638AFCF
:10078E0027020679AF2702040DAF270206F8AF271E
:08079E000206BAAF27120ACAD5
:0107A6002230
:10073300E50964026004E4F50E22D3E50E94007427
:100743008094804003150E22750E64120AFDD3EFC8
:100753009432748094804012D3E50C940E74809488
:0A076300804007150CAF0C1208349B
:01076D002269
:10098200AF09EF600464017004E4F51122D3E511AC
:100992009400748094804003151122751114120A78
:0209A2006D22C4
:10086700C3E51F952FFFE51E952EFED3EF9400EEEF
:100877006480948050028001C35017E52F2401F54E
:100887001FE4352EF51E12098212073312076E1266
:0308970005ED224A
:100A9D00120A1C120AB412093E12015912086712E9
:070AAD000B61120B5D80F2EA
:10039D000200020C021802240230023B02470252F4
:1003AD00025E02690274027F02890293029E02A814
:1003BD0002B102BB02C402CE02D602DF02E802F095
:1003CD0002F803000308030F0316031E0324032B77
:1003DD0003320338033E0344034A034F0355035AC4
:1003ED00035F03640369036D03720376037B037F6D
:1003FD0003830386038A038E039103940398039B5F
:0404D9008E278F28B3
:1004DD00E4FC7937EC2401FFE433FEE9FBC3EF9B29
:1004ED007480F86E985042E9FFEC2FFFE433A2E7D9
:1004FD0013EF13FD25E0249DF582E43403F583E429
:10050D0093F529740193F52AC3E528952AE52795D6
:10051D00295004A90580BDD3E528952AE5279529FD
:0D052D004004AC0580AEAF0522EC2419FFA0
:01053A00229E
:1007A700E4F527F528F529C3E52994087480948092
:1007B70050137F041209FFEF2528F528EE3527F59A
:1007C70027052980E2AE27E5287803CEC313CE1389
:0707D700D8F9F5288E27FF79
:0107DE0022F8
:0E0AFD001207A7C3E49FFF74049EFE0204D9F3
:10000E0075F008758200EF2FFFEE33FECD33CDCCA9
:10001E0033CCC58233C5829BED9AEC99E58298402C
:10002E000CF582EE9BFEED9AFDEC99FC0FD5F0D609
:10003E00E4CEFBE4CDFAE4CCF9A88222B800C1B933
:10004E000059BA002DEC8BF084CFCECDFCE5F0CB71
:10005E00F97818EF2FFFEE33FEED33FDEC33FCEBAA
:10006E0033FB10D703994004EB99FB0FD8E5E4F965
:10007E00FA227818EF2FFFEE33FEED33FDEC33FC52
:10008E00C933C910D7059BE99A4007EC9BFCE99A46
:10009E00F90FD8E0E4C9FAE4CCFB2275F010EF2F8B
:1000AE00FFEE33FEED33FDCC33CCC833C810D7078B
:1000BE009BEC9AE899400AED9BFDEC9AFCE899F8C6
:0E00CE000FD5F0DAE4CDFBE4CCFAE4C8F92259
:1000DC00EB9FF5F0EA9E42F0E99D42F0E89C45F07A
:0100EC0022F1
:1000ED00E8600FEFC333FFEE33FEED33FDEC33FC71
:0300FD00D8F12215
:10010000EC8EF0A4CCC5F0CCCDF8EFA4CEC5F02D8C
:10011000FDE43CFCE8A42EC8C5F03DFDE43CFCEF4A
:0D012000A4FFE5F028FEE43DFDE43CFC22D8
:10012D00EF4E6012EF60010EEDBB010B89828A83E9
:10013D00F0A3DFFCDEFA2289F05007F709DFFCA9F6
:0C014D00F022BBFEFCF309DFFCA9F0224D
:00000001FF
