:03000000020A569B
:100A560078FFE4F6D8FD9000007F007E04E4F0A362
:0A0A6600DFFCDEFA75812F020AA002
:03000B00020B0ED7
:0D0B0E00C0E0052FE52F7002052ED0E0326B
:03000300020B6885
:010B6800325A
:0F0AE2007D407C06ED1D70011C144C70F7DFF198
:010AF10022E2
:100A3B0075B20AE4F5B190FE3574EFF075CA207506
:0B0A4B00C910C2CDC2B1D2B0C2B122AE
:0E0AF200E4F589758AEB758CCBD28CD2A922E3
:100A8900E4F5D875D908F5E9F5F975DB4275F3C0D0
:070A9900F5EBF5FBD2DE22B4
:0D0B1B0090FEA8743FF075DE2775BC8F2298
:100A1F00E4F52EF52F43BA80120AF2120A89120A50
:0C0A2F003B120B1BD28875C120D2AF22F5
:090B4B0020B2037F01227F002289
:1009C500C2CDC2B1D2B0C2B1EF24FE600A14600A32
:0F09D5002402700AD2CD22D2B122C2B0D2B122F6
:1009A400C374FF9FFF74039EAD075403C4F854F04F
:1009B400C8E4C4540F48FFE5F354CF4FF5F38DFB5F
:0109C4002210
:0B0B4000EF600443BC802253BC7F2206
:100A0200E5BC54F04FF5BC43BC400000E5BC30E50A
:0C0A1200FB53BCDFAFBDEFFEADBEEDFF3F
:010A1E0022B5
:10047200E4F52CF52DFCECC39408748094805012A2
:100482007F0F120A02EF252DF52DEE352CF52C0CDF
:1004920080E4AE2CE52D7803CEC313CE13D8F9F544
:1004A2002D8E2C901FF7E493FE740193FFE4FCFD64
:1004B200780A1200EDE47B0AFAF9F812004AC00643
:1004C200C007AE2CAF2DAB07AA06E4F9F8D007D0CF
:0404D2000602004AD4
:040B60007587012272
:10089A00120B4BEF7027FF120B4075FBFF75EBFF36
:1008AA0043F33FD2A875870200000000C2A8E4F50E
:0E08BA00FBF5EB53F3C00F120B40120AE222C3
:0500060043C76080FE0D
:040B640075C13822FD
:100AB7007E007F057D007B007A00792012012D855D
:060AC7002E25852F2622DA
:10015900C3E526952FFFE525952EFED3EF9400EEF6
:100169006480948050028001C340024135E52F2408
:1001790005F526E4352EF525120B4BEF6047E4F51E
:10018900210520E52064A07003020006AF207E004F
:10019900EF640A700475240622D3EF940AEE648092
:1001A900948040130522E522940174809480407C58
:1001B900E4F52275240722E5206401706FE52470B7
:1001C9006B75240122AF207E00D3EF9401748094D3
:1001D900804039EF940A7480948050300523E4F507
:1001E90021AF23EF64017005752402801FEF6402BB
:1001F9004E70057524038014EF64034E7005752451
:10020900048009EF64044E7003752405E4F520D3D6
:10021900E52394007480948040120521D3E521944C
:0D02290005748094804005E4F521F5232242
:050B5400AF24E4F524CC
:010B59002279
:10032700017001760179017B017E01830188018ECD
:10033700019601A400140017001A001D00210025D2
:10034700002A002F0035003C0044004D0057006391
:100357000070007E008F00A200B700CF00EA0109FD
:10036700012B0152017F01B101E90229027202C387
:100377000320038903FF010106190101010101029D
:100387000302030203020101010101060C3201010C
:0303970001015011
:10093E007E007F167D007B007A00790812012D85DE
:10094E002E1E852F1F75120175134A75140A751503
:02095E00502225
:10059600E50814601D14603224027047C3EF9422EC
:1005A600EE940150028014C3EF944AEE9401503346
:1005B600802EC3EF9422EE9401500475080222D3D4
:1005C600EF9454EE9401401B8009D3EF9454EE94BB
:1005D600014004E4F50822D3EF942CEE9401400385
:0405E6007508012271
:040236008E2C8F2D4E
:10023A00ED25E0243BF582E43403F583E493FE7470
:10024A000193FF7C007DB4120100C3E49FFF74C0D8
:10025A009EFE74039DFDE49CFCA804A905AA06ABB6
:10026A0007E52CC313FEE52D13FFE4FCFDEB2FFF7E
:10027A00EA3EFEED39FDEC38FCC006C007AE2CAFF5
:10028A002DAB07AA06E4F9F8D007D00612004A8F68
:10029A00828E83E4FCFD7BFF7A03F9F8C31200DC4B
:0902AA0050039003FFAE83AF8204
:0102B3002228
:04053800AB07AA065D
:10053C00AE14E5157803CEC313CE13D8F9FFC3EB75
:10054C009FFFEA9EFEEF2515F515EE3514F514FE0A
:10055C00E5157803CEC313CE13D8F9FFC39513EE6C
:10056C009512500BC3E5139FFDE5129EFC8009C349
:10057C00EF9513FDEE9512FCC3ED9402EC94004044
:09058C00048E128F13AE12AF139E
:010595002243
:100A70001204721205388E278F28AD161202361214
:090A800009A4AF28AE2702059677
:020834008F290A
:100836001204728E2A8F2BAD291202361209A4AF2A
:100846002BAE2A120596852A12852B13AE2AE52B86
:100856007803C333CE33CED8F9F5158E1485291611
:01086600226F
:10096000E50A24FE601314601324027012E5096482
:100970000370037F20227F1C227F11227F0E227FA3
:02098000002253
:0C0B2800E50A64017003AF0C22AF0D223F
:0608C800750B011209602E
:1008CE008F28E50A6401700BE50C652860138528F6
:1008DE000C800BE50D6528600885280DAF281208E1
:0208EE003422B2
:1008F000E4FDEDC3940A748094805019ED25E02442
:1009000027F582E43403F583D37401939FE4939E27
:0709100050030D80DDAF056F
:0109170022BD
:1007E200120472AB07AA061208F0AD07AF03120596
:0D07F20096ED70037F0122ED75F00FA4FF5E
:0107FF0022D7
:1005EA00E51B451A6044D3E51D9400E51C940040C0
:1005FA0009E51D151D7033151C220517E517C3954E
:10060A00184003E4F517E51B2517F582E4351AF5BA
:10061A0083E4938519F0A485F01CF51DE51730E0F5
:0B062A00047F008002AF0A1209C52205
:1009E4008E1A8F1B8D188B19E4F5178F828E8393C3
:0E09F4008519F0A485F01CF51DAF0A0209C597
:060B5A00E4F51AF51B2270
:0C0B3400E51B451A60037F01227F0022B0
:1002B4008F09120B5AEF146059146015146014144A
:1002C400602614603924057059751C00751DC8809A
:1002D4004C803B1209601208347E037F7DE50F9049
:1002E400037F93FB7D0280131209601208347E039E
:1002F4007F81E51090039393FB7D120209E4750A54
:10030400031207E2751C008F1DE4FF120834AF0AC4
:10031400800D751C00751DC8E4FF120834E4FF123B
:0303240009C522E6
:10063500EF24FD601224FD601524047016750A016F
:10064500AF0C12083480031208C87F0280027F05B0
:100655000202B4D3E51D9400E51C94004009E51D94
:10066500151D700C151C22751C00751DC812089AE5
:010675002262
:100676008F28E4FF1209C5E52824FB6011240470C5
:1006860012751C00751DC87F031209C58005E4FF9D
:100696000202B4D3E51D9400E51C94004009E51D53
:1006A600151D700C151C22751C00751DC812089AA4
:0106B6002221
:10091800120B28AE07120960EFB50604E4F50B22A6
:10092800AF06EF7004750B0122E50B70047F0180A0
:05093800027F008F0B9F
:01093D002297
:10080000120B28AE07E50B6013120960EEC39F5070
:1008100005EE04FF8002AF06AE078013EED394000E
:10082000748094804005EE14FF8002AF06AE07AFDF
:04083000060208CEE6
:10040A00EF24FD601114601D24FE6026146026246A
:10041A00057025E48028750A02AF0D1208347F02A0
:10042A001202B48013E50A64027003750A037F039B
:10043A00800D120918120800E50864027004FF0210
:10044A0002B4E50864017011120B34EF70197E03CF
:10045A007F957B0C7D050209E4120B34EF6008AF2F
:08046A000A1209C5120B5A2207
:10073600EF24FB600B14600C240470247F048027D4
:100746007F018023E50F70047F0180027F008F0FF9
:100756007E037F7DE50F90037F93FB7D021209E404
:0B076600E50864027004FF1202B422D8
:1006F800EF24FD600B24FD600E24047026E480299D
:100708001208C87F028023E51070047F0180027FF1
:10071800008F107E037F81E51090039393FB7D1279
:0E0728001209E4E50864027004FF1202B42214
:100ACD008F28E51D151D7002151CE51D451C7004B4
:050ADD00FF1202B4222B
:10077100120B548F27E509146015146017146019C2
:1007810014601B14601D2405701EAF27020635AFCF
:1007910027020676AF2702040AAF27020736AF27E2
:0807A1000206F8AF27120ACD91
:0107A900222D
:1006B700E50964027006E50A64016004E4F50E22A8
:1006C700D3E50E9400748094804003150E22750EB6
:1006D70064120B00D3EF9432748094804012D3E5F8
:1006E7000C940E748094804007150CAF0C120834DC
:0106F70022E0
:10098200AF09EF600464017004E4F51122D3E511AC
:100992009400748094804003151122751114120A78
:0209A2007022C1
:10086700C3E51F952FFFE51E952EFED3EF9400EEEF
:100877006480948050028001C35017E52F2401F54E
:100887001FE4352EF51E1209821206B712077112E0
:0308970005EA224D
:100AA000120A1F120AB712093E12015912086712E0
:070AB0000B64120B6080F2E1
:10039A000200020C021802240230023B02470252F7
:1003AA00025E02690274027F02890293029E02A817
:1003BA0002B102BB02C402CE02D602DF02E802F098
:1003CA0002F803000308030F0316031E0324032B7A
:1003DA0003320338033E0344034A034F0355035AC7
:1003EA00035F03640369036D03720376037B037F70
:1003FA0003830386038A038E039103940398039B62
:0404D6008E278F28B6
:1004DA00E4FC7937EC2401FFE433FEE9FBC3EF9B2C
:1004EA007480F86E985042E9FFEC2FFFE433A2E7DC
:1004FA0013EF13FD25E0249AF582E43403F583E42F
:10050A0093F529740193F52AC3E528952AE52795D9
:10051A00295004A90580BDD3E528952AE527952900
:0D052A004004AC0580AEAF0522EC2419FFA3
:0105370022A1
:1007AA00E4F527F528F529C3E5299408748094808F
:1007BA0050137F04120A02EF2528F528EE3527F593
:1007CA0027052980E2AE27E5287803CEC313CE1386
:0707DA00D8F9F5288E27FF76
:0107E10022F5
:0E0B00001207AAC3E49FFF74049EFE0204D6EF
:10000E0075F008758200EF2FFFEE33FECD33CDCCA9
:10001E0033CCC58233C5829BED9AEC99E58298402C
:10002E000CF582EE9BFEED9AFDEC99FC0FD5F0D609
:10003E00E4CEFBE4CDFAE4CCF9A88222B800C1B933
:10004E000059BA002DEC8BF084CFCECDFCE5F0CB71
:10005E00F97818EF2FFFEE33FEED33FDEC33FCEBAA
:10006E0033FB10D703994004EB99FB0FD8E5E4F965
:10007E00FA227818EF2FFFEE33FEED33FDEC33FC52
:10008E00C933C910D7059BE99A4007EC9BFCE99A46
:10009E00F90FD8E0E4C9FAE4CCFB2275F010EF2F8B
:1000AE00FFEE33FEED33FDCC33CCC833C810D7078B
:1000BE009BEC9AE899400AED9BFDEC9AFCE899F8C6
:0E00CE000FD5F0DAE4CDFBE4CCFAE4C8F92259
:1000DC00EB9FF5F0EA9E42F0E99D42F0E89C45F07A
:0100EC0022F1
:1000ED00E8600FEFC333FFEE33FEED33FDEC33FC71
:0300FD00D8F12215
:10010000EC8EF0A4CCC5F0CCCDF8EFA4CEC5F02D8C
:10011000FDE43CFCE8A42EC8C5F03DFDE43CFCEF4A
:0D012000A4FFE5F028FEE43DFDE43CFC22D8
:10012D00EF4E6012EF60010EEDBB010B89828A83E9
:10013D00F0A3DFFCDEFA2289F05007F709DFFCA9F6
:0C014D00F022BBFEFCF309DFFCA9F0224D
:00000001FF
