:030000000209AB47
:1009AB0078FFE4F6D8FD9000007F007E04E4F0A30E
:0A09BB00DFFCDEFA75812F020A0F3F
:03000B00020A7E68
:0D0A7E00C0E0052FE52F7002052ED0E032FC
:03000300020ADF0F
:010ADF0032E4
:0F0A52007D907C01ED1D70011C144C70F7DFF1DD
:010A61002272
:1009C50075B208E4F5B190FE3574EFF075CA20757F
:0909D500C910C2CDC2B1C2B022AA
:0E0A6200E4F589758AFB758CF2D28CD2A9223C
:100A2600E4F5D875D908F5E9F5F975DB42F5F3F57E
:060A3600EBF5FBD2DE220D
:0D0A8B0090FEA8743FF075DE2175BC8F222F
:10097400E4F52EF52F43BA80120A62120A261209F0
:0C098400C5120A8BD28875C120D2AF22A8
:090ABB0020B2037F01227F00221A
:1009F700C2CDC2B1C2B0EF24FE6008047009D2B103
:080A0700D2CD22D2B0D2CD22E3
:070AC400C374FF9FF5FB2244
:0B0AB000EF600443BC802253BC7F2297
:10095700E5BC54F04FF5BC43BC400000E5BC30E5B6
:0C096700FB53BCDFAFBDEFFEADBEEDFFEB
:010973002261
:10033300E4F52CF52DFCECC39408748094805012E2
:100343007F0F120957EF252DF52DEE352CF52C0CCB
:1003530080E4AE2CE52D7803CEC313CE13D8F9F584
:100363002D8E2C901FF7E493FE740193FFE4FCFDA4
:10037300780A120131E47B0AFAF9F812009FC006E9
:10038300C007AE2CAF2DAB07AA06E4F9F8D007D00F
:040393000602009FBF
:040AD70075870122FC
:10083300120ABBEF7027FF120AB075FBFF75EBFFBF
:1008430043F33FD2A875870200000000C2A8E4F575
:0E085300FBF5EB53F3C00F120AB0120A52224B
:0500060043C76080FE0D
:040ADB0075C1382287
:100A3C007E007F057D007B007A00792012014485C1
:060A4C002E25852F262255
:10017000C3E526952FFFE525952EFED3EF9400EEDF
:100180006480948050028001C34002414CE52F24DA
:1001900005F526E4352EF525120ABBEF6047E4F598
:1001A000210520E52064A07003020006AF207E0038
:1001B000EF640A700475240622D3EF940AEE64807B
:1001C000948040130522E522940174809480407C41
:1001D000E4F52275240722E5206401706FE52470A0
:1001E0006B75240122AF207E00D3EF9401748094BC
:1001F000804039EF940A7480948050300523E4F5F0
:1002000021AF23EF64017005752402801FEF6402A3
:100210004E70057524038014EF64034E7005752439
:10022000048009EF64044E7003752405E4F520D3BF
:10023000E52394007480948040120521D3E5219435
:0D02400005748094804005E4F521F523222B
:050ACB00AF24E4F52456
:010AD0002203
:10050A00017001760179017B017E01830188018EE8
:10051A00019601A4191B1D1F212426292C2F3336CD
:10052A003A3F43484E535960676E777F89939DA936
:10053A00B5C2D1E0F001010619010101010102036E
:10054A0002030203020101010101060C3201010149
:02055A0001504E
:1008D7007E007F167D007B007A007908120144852F
:1008E7002E1E852F1F75120175134A75140A75156B
:0208F70050228D
:1004B600E50814601D14603224027047C3EF9422CD
:1004C600EE940150028014C3EF944AEE9401503327
:1004D600802EC3EF9422EE9401500475080222D3B5
:1004E600EF9454EE9401401B8009D3EF9454EE949C
:1004F600014004E4F50822D3EF942CEE9401400366
:040506007508012251
:04074E00AB07AA0645
:10075200ED90051E9375F0E6A4FFC3E49FFD74F0CF
:1007620095F0FCEAC313FEEB132DFFEC3EFEAC0248
:10077200AD0312000EEFD394FF7480948040027F89
:01078200FF77
:010783002253
:04045800AB07AA063E
:10045C00AE14E5157803CEC313CE13D8F9FFC3EB56
:10046C009FFFEA9EFEEF2515F515EE3514F514FEEB
:10047C00E5157803CEC313CE13D8F9FFC39513EE4D
:10048C009512500BC3E5139FFDE5129EFC8009C32A
:10049C00EF9513FDEE9512FCC3ED9402EC94004025
:0904AC00048E128F13AE12AF137F
:0104B5002224
:1009DE001203331204588E278F28AD1612074E12AB
:0909EE000AC4AF28AE270204B6CA
:0207B8008F2987
:1007BA001203338E2A8F2BAD2912074E120AC4AFA9
:1007CA002BAE2A1204B6852A12852B13AE2AE52BE4
:1007DA007803C333CE33CED8F9F5158E148529168E
:0107EA0022EC
:10099000E50A24FE600F04700FE509640370037F0D
:0B09A00020227F1F227F20227F0022E8
:0C0A9800E50A64017003AF0C22AF0D22D0
:06086100750B0112099065
:100867008F28E50A6401700BE50C6528601385285D
:100877000C800BE50D6528600885280DAF28120749
:02088700B82295
:10088900E4FDEDC3940A748094805019ED25E024A9
:100899000AF582E43405F583D37401939FE4939EAA
:0708A90050030D80DDAF05D7
:0108B0002225
:10091B00120333AB07AA06120889AD07AF03120403
:0D092B00B6ED70037F0122ED75F00FA4FF03
:01093800229C
:10055C00E51B451A6044D3E51D9400E51C9400404E
:10056C0009E51D151D7033151C220517E517C395DC
:10057C00184003E4F517E51B2517F582E4351AF549
:10058C0083E4938519F0A485F01CF51DE51730E084
:0B059C00047F008002AF0A1209F72262
:100939008E1A8F1B8D188B19E4F5178F828E83936E
:0E0949008519F0A485F01CF51DAF0A0209F710
:060AD100E4F51AF51B22FA
:0C0AA400E51B451A60037F01227F002241
:10024D008F09120AD1EF146059146015146014143B
:10025D0060261460392405705C751C00751DC880FE
:10026D004F803B1209901207B87E057F3FE50F9036
:10027D00054193FB7D0280131209901207B87E058C
:10028D007F43E51090055593FB7D12020939750AE0
:10029D000212091B751C008F1DE4FF1207B8AF0A6F
:1002AD008010750A02751C00751DC8E4FF1207B891
:0602BD00E4FF1209F72224
:1005A700EF24FD601224FD601524047016750A01FE
:1005B700AF0C1207B880031208617F0280027F0523
:1005C70002024DD3E51D9400E51C94004009E51D8A
:1005D700151D700C151C22751C00751DC8120833DB
:0105E70022F1
:1005E8008F28E4FF1209F7E52824FB601124047022
:1005F80012751C00751DC87F021209F78005E4FFFB
:1006080002024DD3E51D9400E51C94004009E51D48
:10061800151D700C151C22751C00751DC812083399
:0106280022AF
:1008B100120A98AE07120990EFB50604E4F50B226F
:1008C100AF06EF7004750B0122E50B70047F018008
:0508D100027F008F0B07
:0108D60022FF
:10078400120A98AE07E50B6013120990EEC39F504E
:1007940005EE04FF8002AF06AE078013EED394008B
:1007A400748094804005EE14FF8002AF06AE07AF5C
:0407B40006020867CA
:1003F900EF24FD601114601D24FE601D14601D248E
:1004090005701CE4801F750A02AF0D1207B87F0240
:1004190012024D800A7F03800D1208B1120784E58C
:100429000864027004FF02024DE5086401701112AC
:100439000AA4EF70197E057F577B0C7D05020939E7
:0F044900120AA4EF6008AF0A1209F7120AD122B3
:10066700EF24FB600B14600C240470247F048027A4
:100677007F018023E50F70047F0180027F008F0FC9
:100687007E057F3FE50F90054193FB7D02120939F7
:0B069700E50864027004FF12024D220F
:10062900EF24FD600B24FD600E24047026E480296C
:100639001208617F028023E51070047F0180027F28
:10064900008F107E057F43E51090055593FB7D12C1
:0E065900120939E50864027004FF12024D22F6
:1007EB008F28E51D151D7002151CE51D451C700499
:0507FB00FF12024D2277
:1006DD00120ACB8F27E509146015146017146019E1
:1006ED0014601B14601D2405701EAF270205A7AFF3
:1006FD00270205E8AF270203F9AF27020667AF27E8
:08070D00020629AF271207EBD9
:0107150022C1
:1006A200E50964026004E4F50E22D3E50E940074B9
:1006B2008094804003150E22750E64120A70D3EFE7
:1006C2009432748094804012D3E50C940F74809419
:0A06D200804007150CAF0C1207B8AA
:0106DC0022FB
:1008F900AF09EF600464017004E4F51122D3E51136
:100909009400748094804003151122751114120902
:02091900DE22DC
:10080000C3E51F952FFFE51E952EFED3EF9400EE56
:100810006480948050028001C35017E52F2401F5B5
:100820001FE4352EF51E1208F91206A21206DD127B
:03083000055C2242
:100A0F00120974120A3C1208D71201701208001250
:070A1F000ADB120AD780F286
:1002C3000200020C021802240230023B02470252CF
:1002D300025E02690274027F02890293029E02A8EF
:1002E30002B102BB02C402CE02D602DF02E802F070
:1002F30002F803000308030F0316031E0324032B52
:1003030003320338033E0344034A034F0355035A9E
:10031300035F03640369036D03720376037B037F47
:1003230003830386038A038E039103940398039B39
:040397008E278F28F6
:10039B00E4FC7937EC2401FFE433FEE9FBC3EF9B6C
:1003AB007480F86E985042E9FFEC2FFFE433A2E71C
:1003BB0013EF13FD25E024C3F582E43402F583E447
:1003CB0093F529740193F52AC3E528952AE527951A
:1003DB00295004A90580BDD3E528952AE527952941
:0D03EB004004AC0580AEAF0522EC2419FFE4
:0103F80022E2
:10071600E4F527F528F529C3E52994087480948023
:1007260050137F04120957EF2528F528EE3527F5D3
:1007360027052980E2AE27E5287803CEC313CE131A
:07074600D8F9F5288E27FF0A
:01074D002289
:0E0A7000120716C3E49FFF74049EFE02039754
:10000E00BC000BBE0029EF8DF084FFADF022E4CCD6
:10001E00F875F008EF2FFFEE33FEEC33FCEE9DEC9F
:10002E00984005FCEE9DFE0FD5F0E9E4CEFD22EDE5
:10003E00F8F5F0EE8420D21CFEADF075F008EF2F2F
:10004E00FFED33FD4007985006D5F0F222C398FD20
:05005E000FD5F0EA22BD
:1000630075F008758200EF2FFFEE33FECD33CDCC54
:1000730033CCC58233C5829BED9AEC99E5829840D7
:100083000CF582EE9BFEED9AFDEC99FC0FD5F0D6B4
:10009300E4CEFBE4CDFAE4CCF9A88222B800C1B9DE
:1000A3000059BA002DEC8BF084CFCECDFCE5F0CB1C
:1000B300F97818EF2FFFEE33FEED33FDEC33FCEB55
:1000C30033FB10D703994004EB99FB0FD8E5E4F910
:1000D300FA227818EF2FFFEE33FEED33FDEC33FCFD
:1000E300C933C910D7059BE99A4007EC9BFCE99AF1
:1000F300F90FD8E0E4C9FAE4CCFB2275F010EF2F36
:10010300FFEE33FEED33FDCC33CCC833C810D70735
:100113009BEC9AE899400AED9BFDEC9AFCE899F870
:0E0123000FD5F0DAE4CDFBE4CCFAE4C8F92203
:10013100E8600FEFC333FFEE33FEED33FDEC33FC2C
:03014100D8F122D0
:10014400EF4E6012EF60010EEDBB010B89828A83D2
:10015400F0A3DFFCDEFA2289F05007F709DFFCA9DF
:0C016400F022BBFEFCF309DFFCA9F02236
:00000001FF
