:0300000002099B57
:10099B0078FFE4F6D8FD9000007F007E04E4F0A31E
:0A09AB00DFFCDEFA75812E0209CC94
:03000B00020A885E
:0D0A8800C0E0052EE52E7002052DD0E032F5
:030003000207FFF2
:0107FF0032C7
:0F0A4B007D907C01ED1D70011C144C70F7DFF1E4
:010A5A002279
:100A0F0075B208E4F5B190FE3574EFF075CA207534
:050A1F00C910C2CD2248
:0E0A7A00E4F589758AFB758CF2D28CD2A92224
:1009E300E4F5D875D908F5E9F5F975DB42F5F3F5C2
:0609F300EBF5FBD2DE2251
:0D0A950090FEA8743FF075DE2175BC8F2225
:10097F00E4F52DF52E43BA80120A7A1209E3120A12
:0C098F000F120A95D28875C120D2AF2249
:090AB90020B2037F01227F00221C
:090AC200C2CDEF147002D2CD2266
:070ACB00C374FF9FF5FB223D
:0B0AAE00EF600443BC802253BC7F2299
:10096200E5BC54F04FF5BC43BC400000E5BC30E5AB
:0C097200FB53BCDFAFBDEFFEADBEEDFFE0
:01097E002256
:10077200E4FBFAFCECC3940874809480500E7F0F63
:10078200120962EF2BFBEE3AFA0C80E8AE02EB782C
:1007920003CEC313CE13D8F9FBAA06E4F9F8FF7E01
:0707A200DC7D01FC02009F59
:040AE40075870122EF
:10086600120AB9EF7027FF120AAE75FBFF75EBFF90
:1008760043F33FD2A875870200000000C2A8E4F542
:0E088600FBF5EB53F3C00F120AAE120A4B2221
:0500060043C76080FE0D
:040AE80075C138227A
:1009F9007E007F057D007B007A0079221201318516
:060A09002D27852E282296
:10015D00C3E528952EFFE527952DFED3EF9400EEF0
:10016D006480948050028001C340024139E52E2401
:10017D0005F528E4352DF527120AB9EF6047E4F5AA
:10018D00230522E52264A07003020006AF227E0043
:10019D00EF640A700475260622D3EF940AEE64808C
:1001AD00948040130524E524940174809480407C50
:1001BD00E4F52475260722E5226401706FE52670AB
:1001CD006B75260122AF227E00D3EF9401748094CB
:1001DD00804039EF940A7480948050300525E4F501
:1001ED0023AF25EF64017005752602801FEF6402B1
:1001FD004E70057526038014EF64034E7005752649
:10020D00048009EF64044E7003752605E4F522D3CE
:10021D00E52594007480948040120523D3E5239442
:0D022D0005748094804005E4F523F525223A
:050AD200AF26E4F5264B
:010AD70022FC
:1004D800017001760179017B017E01830188018E1B
:1004E800019601A4191B1D1F212426292C2F333600
:1004F8003A3F43484E535960676E777F89939DA969
:10050800B5C2D1E0F00101061901010101010203A0
:1005180002030203020101010101060C320101017B
:02052800015080
:1008E2007E007F187D007B007A0079081201318535
:1008F2002D20852E217511017512A475130D751405
:020902002022B1
:1003D800E50814601214603424027049C3EF944095
:1003E800EE94015040803BC3EF9422EE94015011EB
:1003F800E515940074809480400315152275080251
:1004080022D3EF944AEE9401401B8009D3EF944A1B
:10041800EE94014004E4F50822D3EF942CEE940105
:06042800400375080122EB
:10083400AD12AC11EF9004EC9375F0E6A4FFC3E4A1
:100844009FFB74F095F0FAECC313FEED132BFFEA53
:100854003EFE12000EEFD394FF7480948040027F1A
:01086400FF94
:010865002270
:10042E00E516C395175020E5162518FFE433FED3C5
:10043E00EF95177480F86E9840058517168030E595
:10044E00182516F5168028E516D395174026E517BC
:10045E002518FFE433FEC3E5169FEE6480F8748022
:10046E009850058517168007C3E5169518F516AF33
:05047E0016120ACB225A
:1005BC00AF151208348F2BE52BD395164006E52B7F
:1005CC009516800CE52BC395165015C3E516952B87
:1005DC00FFE49400FE7C007D0512000E8F2C80053C
:1005EC00AF16020ACBE52C7003752C01852B1785F1
:0505FC002C1812042E72
:0106010022D6
:04037E00AB07AA0619
:10038200AE13E5147803CEC313CE13D8F9FFC3EB33
:100392009FFFEA9EFEEF2514F514EE3513F513FECA
:1003A200E5147803CEC313CE13D8F9FFC39512EE2A
:1003B2009511500BC3E5129FFDE5119EFC8009C308
:1003C200EF9512FDEE9511FCC3ED9402EC94004002
:0503D200048E118F12E2
:0103D7002203
:1007DF00120772AD07AC068C118D12ED7803C3337F
:1007EF00CE33CED8F9F5148E13AF05AE040203D86D
:100A5B0012077212037E1205BCAF12AE110203D83D
:090A3900E4FF1208348F16E4FFFB
:090A42008F151205BCE4F5102229
:0F0A6B00E50A147007E50964037F20227F00224B
:030AEC00AF0C222A
:0609B500750B01120A6B34
:1009BB00E50A6401700AE50C6F60058F0C120A42A0
:0109CB002209
:10089400E4FDEDC3940A748094805019ED25E0249E
:1008A400D8F582E43404F583D37401939FE4939ED2
:0708B40050030D80DDAF05CC
:0108BB00221A
:10092600120772AB07AA06120894AD07AF031203AB
:0D093600D8ED70037F0122ED75F00FA4FFD6
:010943002291
:10052A00E51D451C6044D3E51F9400E51E94004078
:10053A0009E51F151F7033151E220519E519C39504
:10054A001A4003E4F519E51D2519F582E4351CF571
:10055A0083E493851BF0A485F01EF51FE51930E0AE
:0B056A00047F008002AF0A120AC222C8
:100944008E1C8F1D8D1A8B1BE4F5198F828E839359
:0E095400851BF0A485F01EF51FAF0A020AC233
:060AD800E4F51CF51D22EF
:0C0AA200E51D451C60037F01227F00223F
:10023A008F09120AD8EF1460571460151460141449
:10024A00602614603924057058751E00751FC88011
:10025A004B8039120A6B120A427E057F0DE50E9019
:10026A00050F93FB7D028013120A6B120A427E0568
:10027A007F11E50F90052393FB7D12020944750A4D
:10028A0001120926751E008F1F120A39AF0A800E45
:10029A00750A01751E00751FC8120A39E4FF120A91
:0202AA00C2226E
:10057500EF24FD601824FD601B2404701C750A011E
:10058500AF0C120A427F0212023A0207DF1209B5C6
:100595007F0280027F0502023AD3E51F9400E51E23
:1005A50094004009E51F151F700C151E22751E00CD
:0705B500751FC81208662241
:100647008F2AE4FF120AC2E52A24FB6011240470F2
:1006570012751E00751FC87F01120AC28005E4FFCC
:1006670002023AD3E51F9400E51E94004009E51FF6
:10067700151F700C151E22751E00751FC8120866FF
:010687002250
:1008BC00120AECAE07120A6BEFB50604E4F50B2234
:1008CC00AF06EF7004750B0122E50B70047F0180FD
:0508DC00027F008F0BFC
:0108E10022F4
:10080000120AECAE07E50B6013120A6BEEC39F50A1
:1008100005EE04FF8002AF06AE078013EED394000E
:10082000748094804005EE14FF8002AF06AE07AFDF
:04083000060209BBF8
:10048300EF24FD601114601324FE60131460132421
:10049300057012E480151209B5800A7F03800D12DE
:1004A30008BC120800E50864027004FF02023AE582
:1004B3000864017011120AA2EF70197E057F257B73
:1004C3000C7D05020944120AA2EF6008AF0A120A62
:0504D300C2120AD8224C
:1006C600EF24FB600B14600C240470247F04802745
:1006D6007F018023E50E70047F0180027F008F0E6C
:1006E6007E057F0DE50E90050F93FB7D02120944F2
:0B06F600E50864027004FF12023A22C3
:10068800EF24FD600B24FD600E24047026E480290D
:100698001209B57F028023E50F70047F0180027F75
:1006A800008F0F7E057F11E50F90052393FB7D12C8
:0E06B800120944E50864027004FF12023A229F
:100A24008F2AE51F151F7002151EE51F451E700451
:050A3400FF12023A224E
:10070100120AD28F29E509146015146017146019B3
:1007110014601B14601D2405701EAF29020575AFFE
:1007210029020647AF29020483AF290206C6AF2971
:08073100020688AF29120A2418
:01073900229D
:10060200E50964026004E4F50D22D3E50D9400745B
:100612008094804003150D22750DC8120ADED3EFB7
:10062200943274809480401C120A6BEF75F003A41C
:10063200AEF07802CEC313CE13D8F9FFE515D39FDF
:040642004002151548
:010646002291
:10090400AF09EF600464017004E4F51022D3E5102C
:100914009400748094804003151022751014120AF8
:020924005B2254
:1007A900C3E521952EFFE520952DFED3EF9400EEAC
:1007B9006480948050028001C3501AE52E2401F50B
:1007C90021E4352DF52012042E1209041206021215
:0607D900070112052A22AF
:1009CC0012097F1209F91208E212015D1207A9122D
:0709DC000AE8120AE480F2B0
:1002AC000200020C021802240230023B02470252E6
:1002BC00025E02690274027F02890293029E02A806
:1002CC0002B102BB02C402CE02D602DF02E802F087
:1002DC0002F803000308030F0316031E0324032B69
:1002EC0003320338033E0344034A034F0355035AB6
:1002FC00035F03640369036D03720376037B037F5F
:10030C0003830386038A038E039103940398039B50
:04031C008E298F2A6D
:10032000E4FC7937EC2401FFE433FEE9FBC3EF9BE7
:100330007480F86E985042E9FFEC2FFFE433A2E797
:1003400013EF13FD25E024ACF582E43402F583E4D9
:1003500093F52B740193F52CC3E52A952CE529958B
:100360002B5004A90580BDD3E52A952CE529952BB2
:0D0370004004AC0580AEED8001EC2419FFC7
:01037D00225D
:10073A00E4F529F52AF52BC3E52B940874809480F7
:10074A0050137F04120962EF252AF52AEE3529F59E
:10075A0029052B80E2AE29E52A7803CEC313CE13EE
:07076A00D8F9F52A8E29FFE2
:010771002265
:060ADE0012073A02031C9E
:10000E00BC000BBE0029EF8DF084FFADF022E4CCD6
:10001E00F875F008EF2FFFEE33FEEC33FCEE9DEC9F
:10002E00984005FCEE9DFE0FD5F0E9E4CEFD22EDE5
:10003E00F8F5F0EE8420D21CFEADF075F008EF2F2F
:10004E00FFED33FD4007985006D5F0F222C398FD20
:05005E000FD5F0EA22BD
:1000630075F008758200EF2FFFEE33FECD33CDCC54
:1000730033CCC58233C5829BED9AEC99E5829840D7
:100083000CF582EE9BFEED9AFDEC99FC0FD5F0D6B4
:10009300E4CEFBE4CDFAE4CCF9A88222B800C1B9DE
:1000A3000059BA002DEC8BF084CFCECDFCE5F0CB1C
:1000B300F97818EF2FFFEE33FEED33FDEC33FCEB55
:1000C30033FB10D703994004EB99FB0FD8E5E4F910
:1000D300FA227818EF2FFFEE33FEED33FDEC33FCFD
:1000E300C933C910D7059BE99A4007EC9BFCE99AF1
:1000F300F90FD8E0E4C9FAE4CCFB2275F010EF2F36
:10010300FFEE33FEED33FDCC33CCC833C810D70735
:100113009BEC9AE899400AED9BFDEC9AFCE899F870
:0E0123000FD5F0DAE4CDFBE4CCFAE4C8F92203
:10013100EF4E6012EF60010EEDBB010B89828A83E5
:10014100F0A3DFFCDEFA2289F05007F709DFFCA9F2
:0C015100F022BBFEFCF309DFFCA9F02249
:00000001FF
